{
  "contractName": "Marketplace",
  "abi": [
    {
      "constant": false,
      "inputs": [
        {
          "name": "_to",
          "type": "address"
        },
        {
          "name": "_tokenId",
          "type": "uint256"
        }
      ],
      "name": "approve",
      "outputs": [
        {
          "name": "",
          "type": "address"
        }
      ],
      "payable": false,
      "stateMutability": "nonpayable",
      "type": "function"
    },
    {
      "constant": true,
      "inputs": [
        {
          "name": "",
          "type": "uint256"
        }
      ],
      "name": "totalSupply",
      "outputs": [
        {
          "name": "",
          "type": "uint256"
        }
      ],
      "payable": false,
      "stateMutability": "view",
      "type": "function"
    },
    {
      "constant": true,
      "inputs": [
        {
          "name": "",
          "type": "uint256"
        }
      ],
      "name": "playerToOwner",
      "outputs": [
        {
          "name": "",
          "type": "address"
        }
      ],
      "payable": false,
      "stateMutability": "view",
      "type": "function"
    },
    {
      "constant": false,
      "inputs": [
        {
          "name": "_from",
          "type": "address"
        },
        {
          "name": "_to",
          "type": "address"
        },
        {
          "name": "_tokenId",
          "type": "uint256"
        }
      ],
      "name": "transferFrom",
      "outputs": [],
      "payable": false,
      "stateMutability": "nonpayable",
      "type": "function"
    },
    {
      "constant": true,
      "inputs": [
        {
          "name": "",
          "type": "uint256"
        }
      ],
      "name": "playerToApprovedOwner",
      "outputs": [
        {
          "name": "",
          "type": "address"
        }
      ],
      "payable": false,
      "stateMutability": "view",
      "type": "function"
    },
    {
      "constant": false,
      "inputs": [
        {
          "name": "_name",
          "type": "string"
        },
        {
          "name": "_to",
          "type": "address"
        },
        {
          "name": "_tokenId",
          "type": "uint256"
        }
      ],
      "name": "createRandomPlayer",
      "outputs": [],
      "payable": false,
      "stateMutability": "nonpayable",
      "type": "function"
    },
    {
      "constant": true,
      "inputs": [
        {
          "name": "_tokenId",
          "type": "uint256"
        }
      ],
      "name": "ownerOf",
      "outputs": [
        {
          "name": "owner",
          "type": "address"
        }
      ],
      "payable": false,
      "stateMutability": "view",
      "type": "function"
    },
    {
      "constant": true,
      "inputs": [
        {
          "name": "_owner",
          "type": "address"
        }
      ],
      "name": "balanceOf",
      "outputs": [
        {
          "name": "count",
          "type": "uint256"
        },
        {
          "name": "pass",
          "type": "uint8"
        },
        {
          "name": "shoot",
          "type": "uint8"
        },
        {
          "name": "defense",
          "type": "uint8"
        },
        {
          "name": "uniqueId",
          "type": "uint256"
        }
      ],
      "payable": false,
      "stateMutability": "view",
      "type": "function"
    },
    {
      "inputs": [
        {
          "name": "_playerId",
          "type": "uint256"
        },
        {
          "name": "_price",
          "type": "uint256"
        }
      ],
      "payable": false,
      "stateMutability": "nonpayable",
      "type": "function",
      "constant": false,
      "name": "sellPlayer",
      "outputs": []
    },
    {
      "anonymous": false,
      "inputs": [
        {
          "indexed": false,
          "name": "_playerId",
          "type": "uint256"
        },
        {
          "indexed": false,
          "name": "price",
          "type": "uint256"
        }
      ],
      "name": "buyPlayer",
      "type": "function",
      "constant": false,
      "outputs": [],
      "payable": true,
      "stateMutability": "payable"
    },
    {
      "anonymous": false,
      "inputs": [
        {
          "indexed": false,
          "name": "_to",
          "type": "address"
        },
        {
          "name": "_tokenId",
          "type": "uint256"
        }
      ],
      "name": "transfer",
      "type": "function",
      "constant": false,
      "outputs": [],
      "payable": false,
      "stateMutability": "nonpayable"
    },
    {
      "anonymous": false,
      "inputs": [
        {
          "indexed": false,
          "name": "_from",
          "type": "address"
        },
        {
          "indexed": false,
          "name": "_to",
          "type": "address"
        },
        {
          "indexed": false,
          "name": "_tokenId",
          "type": "uint256"
        },
        {
          "indexed": false,
          "name": "shoot",
          "type": "uint8"
        },
        {
          "indexed": false,
          "name": "defense",
          "type": "uint8"
        },
        {
          "indexed": false,
          "name": "uniqueId",
          "type": "uint256"
        }
      ],
      "name": "transferPlayer",
      "type": "function",
      "constant": false,
      "outputs": [],
      "payable": false,
      "stateMutability": "nonpayable"
    },
    {
      "anonymous": false,
      "inputs": [
        {
          "indexed": false,
          "name": "",
          "type": "address"
        },
        {
          "indexed": false,
          "name": "to",
          "type": "address"
        },
        {
          "indexed": false,
          "name": "tokenId",
          "type": "uint256"
        }
      ],
      "name": "ownerToPlayerCount",
      "type": "function",
      "constant": true,
      "outputs": [
        {
          "name": "",
          "type": "uint256"
        }
      ],
      "payable": false,
      "stateMutability": "view"
    },
    {
      "constant": true,
      "inputs": [
        {
          "name": "",
          "type": "uint256"
        }
      ],
      "name": "players",
      "outputs": [
        {
          "name": "name",
          "type": "string"
        },
        {
          "name": "pass",
          "type": "uint8"
        },
        {
          "name": "shoot",
          "type": "uint8"
        },
        {
          "name": "defense",
          "type": "uint8"
        },
        {
          "name": "uniqueId",
          "type": "uint256"
        }
      ],
      "payable": false,
      "stateMutability": "view",
      "type": "function"
    },
    {
      "inputs": [],
      "payable": false,
      "stateMutability": "nonpayable",
      "type": "constructor"
    },
    {
      "anonymous": false,
      "inputs": [
        {
          "indexed": false,
          "name": "playerId",
          "type": "uint256"
        },
        {
          "indexed": false,
          "name": "price",
          "type": "uint256"
        }
      ],
      "name": "PlayerToSell",
      "type": "event"
    },
    {
      "anonymous": false,
      "inputs": [
        {
          "indexed": false,
          "name": "playerId",
          "type": "uint256"
        }
      ],
      "name": "PlayerSold",
      "type": "event"
    },
    {
      "anonymous": false,
      "inputs": [
        {
          "indexed": false,
          "name": "playerId",
          "type": "uint256"
        },
        {
          "indexed": false,
          "name": "name",
          "type": "string"
        },
        {
          "indexed": false,
          "name": "pass",
          "type": "uint8"
        },
        {
          "indexed": false,
          "name": "shoot",
          "type": "uint8"
        },
        {
          "indexed": false,
          "name": "defense",
          "type": "uint8"
        },
        {
          "indexed": false,
          "name": "uniqueId",
          "type": "uint256"
        }
      ],
      "name": "NewPlayerCreated",
      "type": "event"
    },
    {
      "anonymous": false,
      "inputs": [
        {
          "indexed": false,
          "name": "from",
          "type": "address"
        },
        {
          "indexed": false,
          "name": "to",
          "type": "address"
        },
        {
          "indexed": false,
          "name": "tokenId",
          "type": "uint256"
        }
      ],
      "name": "Transfer",
      "type": "event"
    },
    {
      "anonymous": false,
      "inputs": [
        {
          "indexed": false,
          "name": "owner",
          "type": "address"
        },
        {
          "indexed": false,
          "name": "approved",
          "type": "address"
        },
        {
          "indexed": false,
          "name": "tokenId",
          "type": "uint256"
        }
      ],
      "name": "Approval",
      "type": "event"
    }
  ],
  "bytecode": "0x606060405260056000806101000a81548160ff021916908360ff1602179055506002600155600154600a0a600255601a600360006101000a81548160ff021916908360ff160217905550341561005457600080fd5b600560088190555061156a8061006b6000396000f3006060604052600436106100d0576000357c0100000000000000000000000000000000000000000000000000000000900463ffffffff168063095ea7b3146100d557806318160ddd1461011757806319b90d271461014057806323b872dd146101a357806330ff8ed1146102045780634443900c146102675780636352211e146102c457806370a0823114610327578063763f5067146103745780637de81fca146103a0578063a9059cbb146103b8578063a9066f3b146103fa578063c9be830a1461045b578063f71d96cb146104a8575b600080fd5b34156100e057600080fd5b610115600480803573ffffffffffffffffffffffffffffffffffffffff1690602001909190803590602001909190505061058f565b005b341561012257600080fd5b61012a610651565b6040518082815260200191505060405180910390f35b341561014b57600080fd5b6101616004808035906020019091905050610661565b604051808273ffffffffffffffffffffffffffffffffffffffff1673ffffffffffffffffffffffffffffffffffffffff16815260200191505060405180910390f35b34156101ae57600080fd5b610202600480803573ffffffffffffffffffffffffffffffffffffffff1690602001909190803573ffffffffffffffffffffffffffffffffffffffff16906020019091908035906020019091905050610694565b005b341561020f57600080fd5b6102256004808035906020019091905050610730565b604051808273ffffffffffffffffffffffffffffffffffffffff1673ffffffffffffffffffffffffffffffffffffffff16815260200191505060405180910390f35b341561027257600080fd5b6102c2600480803590602001908201803590602001908080601f01602080910402602001604051908101604052809392919081815260200183838082843782019150505050505091905050610763565b005b34156102cf57600080fd5b6102e5600480803590602001909190505061080b565b604051808273ffffffffffffffffffffffffffffffffffffffff1673ffffffffffffffffffffffffffffffffffffffff16815260200191505060405180910390f35b341561033257600080fd5b61035e600480803573ffffffffffffffffffffffffffffffffffffffff16906020019091905050610884565b6040518082815260200191505060405180910390f35b341561037f57600080fd5b61039e60048080359060200190919080359060200190919050506108cd565b005b6103b6600480803590602001909190505061094c565b005b34156103c357600080fd5b6103f8600480803573ffffffffffffffffffffffffffffffffffffffff16906020019091908035906020019091905050610a72565b005b341561040557600080fd5b610459600480803573ffffffffffffffffffffffffffffffffffffffff1690602001909190803573ffffffffffffffffffffffffffffffffffffffff16906020019091908035906020019091905050610bac565b005b341561046657600080fd5b610492600480803573ffffffffffffffffffffffffffffffffffffffff16906020019091905050610c48565b6040518082815260200191505060405180910390f35b34156104b357600080fd5b6104c96004808035906020019091905050610c60565b60405180806020018660ff1660ff1681526020018560ff1660ff1681526020018460ff1660ff16815260200183815260200182810382528781815460018160011615610100020316600290048152602001915080546001816001161561010002031660029004801561057c5780601f106105515761010080835404028352916020019161057c565b820191906000526020600020905b81548152906001019060200180831161055f57829003601f168201915b5050965050505050505060405180910390f35b6105993382610ccb565b15156105a457600080fd5b6105ae8183610d37565b7f8c5be1e5ebec7d5bd14f71427d1e84f3dd0314c0f7b2291e5b200ac8c7c3b925338383604051808473ffffffffffffffffffffffffffffffffffffffff1673ffffffffffffffffffffffffffffffffffffffff1681526020018373ffffffffffffffffffffffffffffffffffffffff1673ffffffffffffffffffffffffffffffffffffffff168152602001828152602001935050505060405180910390a15050565b6000600160048054905003905090565b60056020528060005260406000206000915054906101000a900473ffffffffffffffffffffffffffffffffffffffff1681565b600073ffffffffffffffffffffffffffffffffffffffff168273ffffffffffffffffffffffffffffffffffffffff16141515156106d057600080fd5b3073ffffffffffffffffffffffffffffffffffffffff168273ffffffffffffffffffffffffffffffffffffffff161415151561070b57600080fd5b6107158382610ccb565b151561072057600080fd5b61072b838383610d8d565b505050565b60066020528060005260406000206000915054906101000a900473ffffffffffffffffffffffffffffffffffffffff1681565b6000806000806000809054906101000a900460ff1660ff166001600760003373ffffffffffffffffffffffffffffffffffffffff1673ffffffffffffffffffffffffffffffffffffffff1681526020019081526020016000205401111515156107cb57600080fd5b6107d485610f58565b93506107df85610fe2565b92506107ea85610fe2565b91506107f585610fe2565b9050610804858484848861107f565b5050505050565b60006005600083815260200190815260200160002060009054906101000a900473ffffffffffffffffffffffffffffffffffffffff169050600073ffffffffffffffffffffffffffffffffffffffff168173ffffffffffffffffffffffffffffffffffffffff161415151561087f57600080fd5b919050565b6000600760008373ffffffffffffffffffffffffffffffffffffffff1673ffffffffffffffffffffffffffffffffffffffff168152602001908152602001600020549050919050565b6108d73383610ccb565b15156108e257600080fd5b6000811115156108f157600080fd5b8060096000848152602001908152602001600020819055507f65ed7fd705b2c0462fec0b064b7a0d092cf022f9da03ec71d6014b3646d484b68282604051808381526020018281526020019250505060405180910390a15050565b6000600960008381526020019081526020016000205411151561096e57600080fd5b6009600082815260200190815260200160002054341015151561099057600080fd5b6008546001600760003373ffffffffffffffffffffffffffffffffffffffff1673ffffffffffffffffffffffffffffffffffffffff1681526020019081526020016000205401111515156109e357600080fd5b610a216005600083815260200190815260200160002060009054906101000a900473ffffffffffffffffffffffffffffffffffffffff163383610bac565b60096000828152602001908152602001600020600090557f7755dc2f30a2aa79bc59487825c861421a24a978bf91755f611e8d513d37964c816040518082815260200191505060405180910390a150565b600073ffffffffffffffffffffffffffffffffffffffff168273ffffffffffffffffffffffffffffffffffffffff1614151515610aae57600080fd5b3073ffffffffffffffffffffffffffffffffffffffff168273ffffffffffffffffffffffffffffffffffffffff1614151515610ae957600080fd5b610af33382610ccb565b1515610afe57600080fd5b610b09338383610d8d565b7fddf252ad1be2c89b69c2b068fc378daa952ba7f163c4a11628f55a4df523b3ef338383604051808473ffffffffffffffffffffffffffffffffffffffff1673ffffffffffffffffffffffffffffffffffffffff1681526020018373ffffffffffffffffffffffffffffffffffffffff1673ffffffffffffffffffffffffffffffffffffffff168152602001828152602001935050505060405180910390a15050565b600073ffffffffffffffffffffffffffffffffffffffff168273ffffffffffffffffffffffffffffffffffffffff1614151515610be857600080fd5b3073ffffffffffffffffffffffffffffffffffffffff168273ffffffffffffffffffffffffffffffffffffffff1614151515610c2357600080fd5b610c2d8382610ccb565b1515610c3857600080fd5b610c43838383610d8d565b505050565b60076020528060005260406000206000915090505481565b600481815481101515610c6f57fe5b906000526020600020906003020160009150905080600001908060010160009054906101000a900460ff16908060010160019054906101000a900460ff16908060010160029054906101000a900460ff16908060020154905085565b60008273ffffffffffffffffffffffffffffffffffffffff166005600084815260200190815260200160002060009054906101000a900473ffffffffffffffffffffffffffffffffffffffff1673ffffffffffffffffffffffffffffffffffffffff1614905092915050565b806006600084815260200190815260200160002060006101000a81548173ffffffffffffffffffffffffffffffffffffffff021916908373ffffffffffffffffffffffffffffffffffffffff1602179055505050565b816005600083815260200190815260200160002060006101000a81548173ffffffffffffffffffffffffffffffffffffffff021916908373ffffffffffffffffffffffffffffffffffffffff160217905550600760008373ffffffffffffffffffffffffffffffffffffffff1673ffffffffffffffffffffffffffffffffffffffff16815260200190815260200160002060008154809291906001019190505550600760008473ffffffffffffffffffffffffffffffffffffffff1673ffffffffffffffffffffffffffffffffffffffff16815260200190815260200160002060008154809291906001900391905055506006600082815260200190815260200160002060006101000a81549073ffffffffffffffffffffffffffffffffffffffff02191690557fddf252ad1be2c89b69c2b068fc378daa952ba7f163c4a11628f55a4df523b3ef838383604051808473ffffffffffffffffffffffffffffffffffffffff1673ffffffffffffffffffffffffffffffffffffffff1681526020018373ffffffffffffffffffffffffffffffffffffffff1673ffffffffffffffffffffffffffffffffffffffff168152602001828152602001935050505060405180910390a1505050565b60008082426040518083805190602001908083835b602083101515610f925780518252602082019150602081019050602083039250610f6d565b6001836020036101000a03801982511681845116808217855250505050505090500182815260200192505050604051809103902060019004905060025481811515610fd957fe5b06915050919050565b60008082426040518083805190602001908083835b60208310151561101c5780518252602082019150602081019050602083039250610ff7565b6001836020036101000a038019825116818451168082178552505050505050905001828152602001925050506040518091039020600190049050600360009054906101000a900460ff1660ff168160ff1681151561107657fe5b06915050919050565b611087611359565b60008060009054906101000a900460ff1660ff166001600760003373ffffffffffffffffffffffffffffffffffffffff1673ffffffffffffffffffffffffffffffffffffffff1681526020019081526020016000205401111515156110eb57600080fd5b60a0604051908101604052808881526020018760ff1681526020018660ff1681526020018560ff1681526020018481525091506001600480548060010182816111349190611398565b9160005260206000209060030201600085909190915060008201518160000190805190602001906111669291906113ca565b5060208201518160010160006101000a81548160ff021916908360ff16021790555060408201518160010160016101000a81548160ff021916908360ff16021790555060608201518160010160026101000a81548160ff021916908360ff160217905550608082015181600201555050039050336005600083815260200190815260200160002060006101000a81548173ffffffffffffffffffffffffffffffffffffffff021916908373ffffffffffffffffffffffffffffffffffffffff160217905550600760003373ffffffffffffffffffffffffffffffffffffffff1673ffffffffffffffffffffffffffffffffffffffff168152602001908152602001600020600081548092919060010191905055507f377d1a1b278ce78903c339d49374b491bfd015dc02ab9f32fab31a65a8bfe2cb81888888888860405180878152602001806020018660ff1660ff1681526020018560ff1660ff1681526020018460ff1660ff168152602001838152602001828103825287818151815260200191508051906020019080838360005b838110156113115780820151818401526020810190506112f6565b50505050905090810190601f16801561133e5780820380516001836020036101000a031916815260200191505b5097505050505050505060405180910390a150505050505050565b60a06040519081016040528061136d61144a565b8152602001600060ff168152602001600060ff168152602001600060ff168152602001600081525090565b8154818355818115116113c5576003028160030283600052602060002091820191016113c4919061145e565b5b505050565b828054600181600116156101000203166002900490600052602060002090601f016020900481019282601f1061140b57805160ff1916838001178555611439565b82800160010185558215611439579182015b8281111561143857825182559160200191906001019061141d565b5b50905061144691906114d1565b5090565b602060405190810160405280600081525090565b6114ce91905b808211156114ca576000808201600061147d91906114f6565b6001820160006101000a81549060ff02191690556001820160016101000a81549060ff02191690556001820160026101000a81549060ff0219169055600282016000905550600301611464565b5090565b90565b6114f391905b808211156114ef5760008160009055506001016114d7565b5090565b90565b50805460018160011615610100020316600290046000825580601f1061151c575061153b565b601f01602090049060005260206000209081019061153a91906114d1565b5b505600a165627a7a723058205931a934ab59f52d520983895f098984f0bcb01bfe0affcc6128015be8da23140029",
  "source": "pragma solidity ^0.4.2;\n\nimport \"./PlayerFactory.sol\";\n\ncontract Marketplace is PlayerFactory {\n\n  uint maximumPlayerAllowed;\n\n  function Marketplace() public {\n    maximumPlayerAllowed = 5;\n  }\n\n  event PlayerToSell(uint playerId, uint price);\n  event PlayerSold(uint playerId);\n\n  mapping (uint => uint) playerToPrice;\n\n  function sellPlayer(uint _playerId, uint _price) external {\n    require(_owns(msg.sender, _playerId));\n    require(_price > 0);\n\n    playerToPrice[_playerId] = _price;\n\n    PlayerToSell(_playerId, _price);\n  }\n\n  function buyPlayer(uint _playerId) external payable {\n    // Make sure that this player is being sold\n    require(playerToPrice[_playerId] > 0);\n\n    // Value need to be greater than price, for gas execution\n    require(msg.value >= playerToPrice[_playerId]);\n\n    // Make sure that buyer could add more player to his team\n    require(ownerToPlayerCount[msg.sender] + 1 <= maximumPlayerAllowed);\n\n    transferPlayer(playerToOwner[_playerId], msg.sender, _playerId);\n\n    // Delete mapping after someone buy this player\n    delete playerToPrice[_playerId];\n\n    PlayerSold(_playerId);\n\n  }\n}\n",
  "sourcePath": "/Users/congpham/Desktop/references/blockchain/dapp-shop-react/contracts/Marketplace.sol",
  "compiler": {
    "name": "solc",
    "version": "0.4.18+commit.9cf6e910.Emscripten.clang"
  },
  "schemaVersion": "1.0.1",
  "updatedAt": "2018-03-30T07:59:54.797Z"
}