{
  "contractName": "PlayerFactory",
  "abi": [
    {
      "constant": false,
      "inputs": [
        {
          "name": "_to",
          "type": "address"
        },
        {
          "name": "_tokenId",
          "type": "uint256"
        }
      ],
      "name": "approve",
      "outputs": [
        {
          "name": "",
          "type": "address"
        }
      ],
      "payable": false,
      "stateMutability": "nonpayable",
      "type": "function"
    },
    {
      "constant": true,
      "inputs": [
        {
          "name": "",
          "type": "uint256"
        }
      ],
      "name": "totalSupply",
      "outputs": [
        {
          "name": "",
          "type": "uint256"
        }
      ],
      "payable": false,
      "stateMutability": "view",
      "type": "function"
    },
    {
      "constant": true,
      "inputs": [
        {
          "name": "",
          "type": "uint256"
        }
      ],
      "name": "playerToOwner",
      "outputs": [
        {
          "name": "",
          "type": "address"
        }
      ],
      "payable": false,
      "stateMutability": "view",
      "type": "function"
    },
    {
      "constant": false,
      "inputs": [
        {
          "name": "_from",
          "type": "address"
        },
        {
          "name": "_to",
          "type": "address"
        },
        {
          "name": "_tokenId",
          "type": "uint256"
        }
      ],
      "name": "transferFrom",
      "outputs": [],
      "payable": false,
      "stateMutability": "nonpayable",
      "type": "function"
    },
    {
      "constant": true,
      "inputs": [
        {
          "name": "",
          "type": "uint256"
        }
      ],
      "name": "playerToApprovedOwner",
      "outputs": [
        {
          "name": "",
          "type": "address"
        }
      ],
      "payable": false,
      "stateMutability": "view",
      "type": "function"
    },
    {
      "constant": false,
      "inputs": [
        {
          "name": "_name",
          "type": "string"
        }
      ],
      "name": "createRandomPlayer",
      "outputs": [
        {
          "name": "name",
          "type": "string"
        },
        {
          "name": "pass",
          "type": "uint8"
        },
        {
          "name": "shoot",
          "type": "uint8"
        },
        {
          "name": "defense",
          "type": "uint8"
        },
        {
          "name": "uniqueId",
          "type": "uint256"
        },
        {
          "name": "playerId",
          "type": "uint256"
        }
      ],
      "payable": false,
      "stateMutability": "nonpayable",
      "type": "function"
    },
    {
      "anonymous": false,
      "inputs": [
        {
          "indexed": false,
          "name": "_tokenId",
          "type": "uint256"
        },
        {
          "indexed": false,
          "name": "name",
          "type": "string"
        },
        {
          "indexed": false,
          "name": "pass",
          "type": "uint8"
        },
        {
          "indexed": false,
          "name": "shoot",
          "type": "uint8"
        },
        {
          "indexed": false,
          "name": "defense",
          "type": "uint8"
        },
        {
          "indexed": false,
          "name": "uniqueId",
          "type": "uint256"
        }
      ],
      "name": "ownerOf",
      "type": "function",
      "constant": true,
      "outputs": [
        {
          "name": "owner",
          "type": "address"
        }
      ],
      "payable": false,
      "stateMutability": "view"
    },
    {
      "anonymous": false,
      "inputs": [
        {
          "indexed": false,
          "name": "_owner",
          "type": "address"
        },
        {
          "indexed": false,
          "name": "to",
          "type": "address"
        },
        {
          "indexed": false,
          "name": "tokenId",
          "type": "uint256"
        }
      ],
      "name": "balanceOf",
      "type": "function",
      "constant": true,
      "outputs": [
        {
          "name": "count",
          "type": "uint256"
        }
      ],
      "payable": false,
      "stateMutability": "view"
    },
    {
      "constant": false,
      "inputs": [
        {
          "name": "_to",
          "type": "address"
        },
        {
          "name": "_tokenId",
          "type": "uint256"
        }
      ],
      "name": "transfer",
      "outputs": [],
      "payable": false,
      "stateMutability": "nonpayable",
      "type": "function"
    },
    {
      "constant": false,
      "inputs": [
        {
          "name": "_from",
          "type": "address"
        },
        {
          "name": "_to",
          "type": "address"
        },
        {
          "name": "_tokenId",
          "type": "uint256"
        }
      ],
      "name": "transferPlayer",
      "outputs": [],
      "payable": false,
      "stateMutability": "nonpayable",
      "type": "function"
    },
    {
      "constant": true,
      "inputs": [
        {
          "name": "",
          "type": "address"
        }
      ],
      "name": "ownerToPlayerCount",
      "outputs": [
        {
          "name": "",
          "type": "uint256"
        }
      ],
      "payable": false,
      "stateMutability": "view",
      "type": "function"
    },
    {
      "constant": true,
      "inputs": [
        {
          "name": "",
          "type": "uint256"
        }
      ],
      "name": "players",
      "outputs": [
        {
          "name": "name",
          "type": "string"
        },
        {
          "name": "pass",
          "type": "uint8"
        },
        {
          "name": "shoot",
          "type": "uint8"
        },
        {
          "name": "defense",
          "type": "uint8"
        },
        {
          "name": "uniqueId",
          "type": "uint256"
        }
      ],
      "payable": false,
      "stateMutability": "view",
      "type": "function"
    },
    {
      "anonymous": false,
      "inputs": [
        {
          "indexed": false,
          "name": "playerId",
          "type": "uint256"
        },
        {
          "indexed": false,
          "name": "name",
          "type": "string"
        },
        {
          "indexed": false,
          "name": "pass",
          "type": "uint8"
        },
        {
          "indexed": false,
          "name": "shoot",
          "type": "uint8"
        },
        {
          "indexed": false,
          "name": "defense",
          "type": "uint8"
        },
        {
          "indexed": false,
          "name": "uniqueId",
          "type": "uint256"
        }
      ],
      "name": "NewPlayerCreated",
      "type": "event"
    },
    {
      "anonymous": false,
      "inputs": [
        {
          "indexed": false,
          "name": "from",
          "type": "address"
        },
        {
          "indexed": false,
          "name": "to",
          "type": "address"
        },
        {
          "indexed": false,
          "name": "tokenId",
          "type": "uint256"
        }
      ],
      "name": "Transfer",
      "type": "event"
    },
    {
      "anonymous": false,
      "inputs": [
        {
          "indexed": false,
          "name": "owner",
          "type": "address"
        },
        {
          "indexed": false,
          "name": "approved",
          "type": "address"
        },
        {
          "indexed": false,
          "name": "tokenId",
          "type": "uint256"
        }
      ],
      "name": "Approval",
      "type": "event"
    }
  ],
  "bytecode": "0x606060405260056000806101000a81548160ff021916908360ff1602179055506002600155600154600a0a600255601a600360006101000a81548160ff021916908360ff160217905550341561005457600080fd5b611549806100636000396000f3006060604052600436106100ba576000357c0100000000000000000000000000000000000000000000000000000000900463ffffffff168063095ea7b3146100bf57806318160ddd1461010157806319b90d271461012a57806323b872dd1461018d57806330ff8ed1146101ee5780634443900c146102515780636352211e1461035c57806370a08231146103bf578063a9059cbb1461040c578063a9066f3b1461044e578063c9be830a146104af578063f71d96cb146104fc575b600080fd5b34156100ca57600080fd5b6100ff600480803573ffffffffffffffffffffffffffffffffffffffff169060200190919080359060200190919050506105e3565b005b341561010c57600080fd5b6101146106a5565b6040518082815260200191505060405180910390f35b341561013557600080fd5b61014b60048080359060200190919050506106b5565b604051808273ffffffffffffffffffffffffffffffffffffffff1673ffffffffffffffffffffffffffffffffffffffff16815260200191505060405180910390f35b341561019857600080fd5b6101ec600480803573ffffffffffffffffffffffffffffffffffffffff1690602001909190803573ffffffffffffffffffffffffffffffffffffffff169060200190919080359060200190919050506106e8565b005b34156101f957600080fd5b61020f6004808035906020019091905050610784565b604051808273ffffffffffffffffffffffffffffffffffffffff1673ffffffffffffffffffffffffffffffffffffffff16815260200191505060405180910390f35b341561025c57600080fd5b6102ac600480803590602001908201803590602001908080601f016020809104026020016040519081016040528093929190818152602001838380828437820191505050505050919050506107b7565b60405180806020018760ff1660ff1681526020018660ff1660ff1681526020018560ff1660ff168152602001848152602001838152602001828103825288818151815260200191508051906020019080838360005b8381101561031c578082015181840152602081019050610301565b50505050905090810190601f1680156103495780820380516001836020036101000a031916815260200191505b5097505050505050505060405180910390f35b341561036757600080fd5b61037d600480803590602001909190505061097a565b604051808273ffffffffffffffffffffffffffffffffffffffff1673ffffffffffffffffffffffffffffffffffffffff16815260200191505060405180910390f35b34156103ca57600080fd5b6103f6600480803573ffffffffffffffffffffffffffffffffffffffff169060200190919050506109f3565b6040518082815260200191505060405180910390f35b341561041757600080fd5b61044c600480803573ffffffffffffffffffffffffffffffffffffffff16906020019091908035906020019091905050610a3c565b005b341561045957600080fd5b6104ad600480803573ffffffffffffffffffffffffffffffffffffffff1690602001909190803573ffffffffffffffffffffffffffffffffffffffff16906020019091908035906020019091905050610b76565b005b34156104ba57600080fd5b6104e6600480803573ffffffffffffffffffffffffffffffffffffffff16906020019091905050610c12565b6040518082815260200191505060405180910390f35b341561050757600080fd5b61051d6004808035906020019091905050610c2a565b60405180806020018660ff1660ff1681526020018560ff1660ff1681526020018460ff1660ff1681526020018381526020018281038252878181546001816001161561010002031660029004815260200191508054600181600116156101000203166002900480156105d05780601f106105a5576101008083540402835291602001916105d0565b820191906000526020600020905b8154815290600101906020018083116105b357829003601f168201915b5050965050505050505060405180910390f35b6105ed3382610c95565b15156105f857600080fd5b6106028183610d01565b7f8c5be1e5ebec7d5bd14f71427d1e84f3dd0314c0f7b2291e5b200ac8c7c3b925338383604051808473ffffffffffffffffffffffffffffffffffffffff1673ffffffffffffffffffffffffffffffffffffffff1681526020018373ffffffffffffffffffffffffffffffffffffffff1673ffffffffffffffffffffffffffffffffffffffff168152602001828152602001935050505060405180910390a15050565b6000600160048054905003905090565b60056020528060005260406000206000915054906101000a900473ffffffffffffffffffffffffffffffffffffffff1681565b600073ffffffffffffffffffffffffffffffffffffffff168273ffffffffffffffffffffffffffffffffffffffff161415151561072457600080fd5b3073ffffffffffffffffffffffffffffffffffffffff168273ffffffffffffffffffffffffffffffffffffffff161415151561075f57600080fd5b6107698382610c95565b151561077457600080fd5b61077f838383610d57565b505050565b60066020528060005260406000206000915054906101000a900473ffffffffffffffffffffffffffffffffffffffff1681565b6107bf611324565b6000806000806000806000806000806000809054906101000a900460ff1660ff166001600760003373ffffffffffffffffffffffffffffffffffffffff1673ffffffffffffffffffffffffffffffffffffffff16815260200190815260200160002054011115151561083057600080fd5b6108398c610f22565b94506108448c610fac565b935061084f8c610fac565b925061085a8c610fac565b91506108698c85858589611049565b955060048681548110151561087a57fe5b90600052602060002090600302019050806000018054600181600116156101000203166002900480601f0160208091040260200160405190810160405280929190818152602001828054600181600116156101000203166002900480156109225780601f106108f757610100808354040283529160200191610922565b820191906000526020600020905b81548152906001019060200180831161090557829003601f168201915b50505050509a508060010160009054906101000a900460ff1699508060010160019054906101000a900460ff1698508060010160029054906101000a900460ff16975080600201549650505050505091939550919395565b60006005600083815260200190815260200160002060009054906101000a900473ffffffffffffffffffffffffffffffffffffffff169050600073ffffffffffffffffffffffffffffffffffffffff168173ffffffffffffffffffffffffffffffffffffffff16141515156109ee57600080fd5b919050565b6000600760008373ffffffffffffffffffffffffffffffffffffffff1673ffffffffffffffffffffffffffffffffffffffff168152602001908152602001600020549050919050565b600073ffffffffffffffffffffffffffffffffffffffff168273ffffffffffffffffffffffffffffffffffffffff1614151515610a7857600080fd5b3073ffffffffffffffffffffffffffffffffffffffff168273ffffffffffffffffffffffffffffffffffffffff1614151515610ab357600080fd5b610abd3382610c95565b1515610ac857600080fd5b610ad3338383610d57565b7fddf252ad1be2c89b69c2b068fc378daa952ba7f163c4a11628f55a4df523b3ef338383604051808473ffffffffffffffffffffffffffffffffffffffff1673ffffffffffffffffffffffffffffffffffffffff1681526020018373ffffffffffffffffffffffffffffffffffffffff1673ffffffffffffffffffffffffffffffffffffffff168152602001828152602001935050505060405180910390a15050565b600073ffffffffffffffffffffffffffffffffffffffff168273ffffffffffffffffffffffffffffffffffffffff1614151515610bb257600080fd5b3073ffffffffffffffffffffffffffffffffffffffff168273ffffffffffffffffffffffffffffffffffffffff1614151515610bed57600080fd5b610bf78382610c95565b1515610c0257600080fd5b610c0d838383610d57565b505050565b60076020528060005260406000206000915090505481565b600481815481101515610c3957fe5b906000526020600020906003020160009150905080600001908060010160009054906101000a900460ff16908060010160019054906101000a900460ff16908060010160029054906101000a900460ff16908060020154905085565b60008273ffffffffffffffffffffffffffffffffffffffff166005600084815260200190815260200160002060009054906101000a900473ffffffffffffffffffffffffffffffffffffffff1673ffffffffffffffffffffffffffffffffffffffff1614905092915050565b806006600084815260200190815260200160002060006101000a81548173ffffffffffffffffffffffffffffffffffffffff021916908373ffffffffffffffffffffffffffffffffffffffff1602179055505050565b816005600083815260200190815260200160002060006101000a81548173ffffffffffffffffffffffffffffffffffffffff021916908373ffffffffffffffffffffffffffffffffffffffff160217905550600760008373ffffffffffffffffffffffffffffffffffffffff1673ffffffffffffffffffffffffffffffffffffffff16815260200190815260200160002060008154809291906001019190505550600760008473ffffffffffffffffffffffffffffffffffffffff1673ffffffffffffffffffffffffffffffffffffffff16815260200190815260200160002060008154809291906001900391905055506006600082815260200190815260200160002060006101000a81549073ffffffffffffffffffffffffffffffffffffffff02191690557fddf252ad1be2c89b69c2b068fc378daa952ba7f163c4a11628f55a4df523b3ef838383604051808473ffffffffffffffffffffffffffffffffffffffff1673ffffffffffffffffffffffffffffffffffffffff1681526020018373ffffffffffffffffffffffffffffffffffffffff1673ffffffffffffffffffffffffffffffffffffffff168152602001828152602001935050505060405180910390a1505050565b60008082426040518083805190602001908083835b602083101515610f5c5780518252602082019150602081019050602083039250610f37565b6001836020036101000a03801982511681845116808217855250505050505090500182815260200192505050604051809103902060019004905060025481811515610fa357fe5b06915050919050565b60008082426040518083805190602001908083835b602083101515610fe65780518252602082019150602081019050602083039250610fc1565b6001836020036101000a038019825116818451168082178552505050505050905001828152602001925050506040518091039020600190049050600360009054906101000a900460ff1660ff168160ff1681151561104057fe5b06915050919050565b6000611053611338565b6000809054906101000a900460ff1660ff166001600760003373ffffffffffffffffffffffffffffffffffffffff1673ffffffffffffffffffffffffffffffffffffffff1681526020019081526020016000205401111515156110b557600080fd5b60a0604051908101604052808881526020018760ff1681526020018660ff1681526020018560ff1681526020018481525090506001600480548060010182816110fe9190611377565b9160005260206000209060030201600084909190915060008201518160000190805190602001906111309291906113a9565b5060208201518160010160006101000a81548160ff021916908360ff16021790555060408201518160010160016101000a81548160ff021916908360ff16021790555060608201518160010160026101000a81548160ff021916908360ff160217905550608082015181600201555050039150336005600084815260200190815260200160002060006101000a81548173ffffffffffffffffffffffffffffffffffffffff021916908373ffffffffffffffffffffffffffffffffffffffff160217905550600760003373ffffffffffffffffffffffffffffffffffffffff1673ffffffffffffffffffffffffffffffffffffffff168152602001908152602001600020600081548092919060010191905055507f377d1a1b278ce78903c339d49374b491bfd015dc02ab9f32fab31a65a8bfe2cb82888888888860405180878152602001806020018660ff1660ff1681526020018560ff1660ff1681526020018460ff1660ff168152602001838152602001828103825287818151815260200191508051906020019080838360005b838110156112db5780820151818401526020810190506112c0565b50505050905090810190601f1680156113085780820380516001836020036101000a031916815260200191505b5097505050505050505060405180910390a15095945050505050565b602060405190810160405280600081525090565b60a06040519081016040528061134c611429565b8152602001600060ff168152602001600060ff168152602001600060ff168152602001600081525090565b8154818355818115116113a4576003028160030283600052602060002091820191016113a3919061143d565b5b505050565b828054600181600116156101000203166002900490600052602060002090601f016020900481019282601f106113ea57805160ff1916838001178555611418565b82800160010185558215611418579182015b828111156114175782518255916020019190600101906113fc565b5b50905061142591906114b0565b5090565b602060405190810160405280600081525090565b6114ad91905b808211156114a9576000808201600061145c91906114d5565b6001820160006101000a81549060ff02191690556001820160016101000a81549060ff02191690556001820160026101000a81549060ff0219169055600282016000905550600301611443565b5090565b90565b6114d291905b808211156114ce5760008160009055506001016114b6565b5090565b90565b50805460018160011615610100020316600290046000825580601f106114fb575061151a565b601f01602090049060005260206000209081019061151991906114b0565b5b505600a165627a7a72305820f3fbd5e2c581f6c6b9f0d2e42d36f3fd2cab09e75bb54aea8bdcd61a1f7465d80029",
  "source": "pragma solidity ^0.4.2;\n\nimport \"./ERC721.sol\";\n\ncontract PlayerFactory is ERC721 {\n\n    uint8 maximumPlayer = 5;\n\n    uint uniqueDigits = 2; // Keep uniqueId string as 2-digit number to implement some functions based on its uniquesness later\n    uint uniqueModulus = 10 ** uniqueDigits;\n    uint8 skillModulus = 26; // 256 / 26 = 0 -> 10\n\n    struct Player {\n        // General information\n        string name;\n        uint8 pass;\n        uint8 shoot;\n        uint8 defense;\n        // Unique properties\n        uint uniqueId;\n    }\n\n    event NewPlayerCreated(\n        uint playerId,\n        string name,\n        uint8 pass,\n        uint8 shoot,\n        uint8 defense,\n        uint uniqueId\n    );\n\n    Player[] public players;\n\n    mapping (uint => address) public playerToOwner;\n    mapping (uint => address) public playerToApprovedOwner;\n    mapping (address => uint) public ownerToPlayerCount;\n\n    // ============= Modifiers ================\n\n    modifier validPlayerCount(address _owner) {\n        require(ownerToPlayerCount[_owner] <= maximumPlayer);\n        _;\n    }\n\n    modifier couldAddMorePlayer(address _owner) {\n        require(ownerToPlayerCount[_owner] + 1 <= maximumPlayer);\n        _;\n    }\n\n    // ============= ERC-721 compliance ================\n\n    event Transfer(address from, address to, uint256 tokenId);\n    event Approval(address owner, address approved, uint256 tokenId);\n\n    /// @notice Returns the total number of Kitties currently in existence.\n    /// @dev Required for ERC-721 compliance.\n    function totalSupply() public view returns (uint) {\n        return players.length - 1;\n    }\n\n    /// @notice Returns the number of Kitties owned by a specific address.\n    /// @param _owner The owner address to check.\n    /// @dev Required for ERC-721 compliance\n    function balanceOf(address _owner) public view returns (uint256 count) {\n        return ownerToPlayerCount[_owner];\n    }\n\n    /// @notice Returns the address currently assigned ownership of a given Kitty.\n    /// @dev Required for ERC-721 compliance.\n    function ownerOf(uint256 _tokenId)\n        external\n        view\n        returns (address owner)\n    {\n        owner = playerToOwner[_tokenId];\n\n        require(owner != address(0));\n    }\n\n    /// @notice Grant another address the right to transfer a specific Kitty via\n    ///  transferFrom(). This is the preferred flow for transfering NFTs to contracts.\n    /// @param _to The address to be granted transfer approval. Pass address(0) to\n    ///  clear all approvals.\n    /// @param _tokenId The ID of the Kitty that can be transferred if this call succeeds.\n    /// @dev Required for ERC-721 compliance.\n    function approve(\n        address _to,\n        uint256 _tokenId\n    )\n        external\n    {\n        // Only an owner can grant transfer approval.\n        require(_owns(msg.sender, _tokenId));\n\n        // Register the approval (replacing any previous approval).\n        _approve(_tokenId, _to);\n\n        // Emit approval event.\n        Approval(msg.sender, _to, _tokenId);\n    }\n\n    /// @notice Transfers a Kitty to another address. If transferring to a smart\n    ///  contract be VERY CAREFUL to ensure that it is aware of ERC-721 (or\n    ///  CryptoKitties specifically) or your Kitty may be lost forever. Seriously.\n    /// @param _to The address of the recipient, can be a user or contract.\n    /// @param _tokenId The ID of the Kitty to transfer.\n    /// @dev Required for ERC-721 compliance.\n    function transfer(\n        address _to,\n        uint256 _tokenId\n    )\n        external\n    {\n        // Safety check to prevent against an unexpected 0x0 default.\n        require(_to != address(0));\n        // Disallow transfers to this contract to prevent accidental misuse.\n        // The contract should never own any kitties (except very briefly\n        // after a gen0 cat is created and before it goes on auction).\n        require(_to != address(this));\n\n        // You can only send your own cat.\n        require(_owns(msg.sender, _tokenId));\n\n        // Reassign ownership, clear pending approvals, emit Transfer event.\n        _transfer(msg.sender, _to, _tokenId);\n\n        Transfer(msg.sender, _to, _tokenId);\n    }\n\n    /// @notice Transfer a Kitty owned by another address, for which the calling address\n    ///  has previously been granted transfer approval by the owner.\n    /// @param _from The address that owns the Kitty to be transfered.\n    /// @param _to The address that should take ownership of the Kitty. Can be any address,\n    ///  including the caller.\n    /// @param _tokenId The ID of the Kitty to be transferred.\n    /// @dev Required for ERC-721 compliance.\n    function transferFrom(\n        address _from,\n        address _to,\n        uint256 _tokenId\n    )\n        external\n    {\n        // Safety check to prevent against an unexpected 0x0 default.\n        require(_to != address(0));\n        // Disallow transfers to this contract to prevent accidental misuse.\n        // The contract should never own any kitties (except very briefly\n        // after a gen0 cat is created and before it goes on auction).\n        require(_to != address(this));\n        // Check for approval and valid ownership\n        require(_owns(_from, _tokenId));\n\n        // Reassign ownership (also clears pending approvals and emits Transfer event).\n        _transfer(_from, _to, _tokenId);\n    }\n\n\n\n    // ============= Private / Internal functions ================\n    /// @dev For private/ internal functions, we shouldn't handle error check, validating, etc.\n    ///  This should be checked before calling these functions\n\n    /// @dev Assigns ownership of a specific Kitty to an address.\n    function _transfer(address _from, address _to, uint256 _tokenId) internal {\n        playerToOwner[_tokenId] = _to;\n\n        ownerToPlayerCount[_to]++;\n        ownerToPlayerCount[_from]--;\n\n        // Since this player has been transfer, so delete all previously approved owner\n        delete playerToApprovedOwner[_tokenId];\n\n        Transfer(_from, _to, _tokenId);\n    }\n\n    function _approve(uint _tokenId, address _approved) internal {\n        playerToApprovedOwner[_tokenId] = _approved;\n    }\n\n    function _owns(address _owner, uint _tokenId) internal view returns (bool) {\n        return playerToOwner[_tokenId] == _owner;\n    }\n\n    function _createPlayer(\n        string _name,\n        uint8 _pass,\n        uint8 _shoot,\n        uint8 _defense,\n        uint _uniqueId\n    )\n        internal\n        returns (uint playerId)\n    {\n        require(ownerToPlayerCount[msg.sender] + 1 <= maximumPlayer);\n\n        Player memory _player = Player({\n            name: _name,\n            pass: _pass,\n            shoot: _shoot,\n            defense: _defense,\n            uniqueId: _uniqueId\n        });\n\n        playerId = players.push(_player) - 1;\n\n        playerToOwner[playerId] = msg.sender;\n        ownerToPlayerCount[msg.sender]++;\n\n        NewPlayerCreated(playerId, _name, _pass, _shoot, _defense, _uniqueId);\n    }\n\n    function _generateRandomUniqueness(string _str) private view returns (uint _randomUnique) {\n        uint rand = uint(keccak256(_str, now)); // Use now here to make sure if user's input are same, they would still provde different hash\n        return rand % uniqueModulus;\n    }\n\n    function _generateRandomSkill(string _str) private view returns (uint8 _randomSkill) {\n        uint8 rand = uint8(keccak256(_str, now));\n        return uint8(rand % skillModulus);\n    }\n\n    // ============= Public functions ================\n\n    function transferPlayer(\n        address _from,\n        address _to,\n        uint256 _tokenId\n    )\n        public\n    {\n        // Safety check to prevent against an unexpected 0x0 default.\n        require(_to != address(0));\n        // Disallow transfers to this contract to prevent accidental misuse.\n        // The contract should never own any kitties (except very briefly\n        // after a gen0 cat is created and before it goes on auction).\n        require(_to != address(this));\n        // Check for approval and valid ownership\n        require(_owns(_from, _tokenId));\n\n        // Reassign ownership (also clears pending approvals and emits Transfer event).\n        _transfer(_from, _to, _tokenId);\n    }\n\n    function createRandomPlayer(string _name) public returns (\n        string name,\n        uint8 pass,\n        uint8 shoot,\n        uint8 defense,\n        uint uniqueId,\n        uint playerId\n    ) {\n        require(ownerToPlayerCount[msg.sender] + 1 <= maximumPlayer);\n\n        uint randUniqueId = _generateRandomUniqueness(_name);\n        uint8 passSkill = _generateRandomSkill(_name);\n        uint8 shootSkill = _generateRandomSkill(_name);\n        uint8 defenseSkill = _generateRandomSkill(_name);\n\n        playerId = _createPlayer(_name, passSkill, shootSkill, defenseSkill, randUniqueId);\n\n        Player storage player = players[playerId];\n\n        name = player.name;\n        pass = player.pass;\n        shoot = player.shoot;\n        defense = player.defense;\n        uniqueId = player.uniqueId;\n    }\n\n}\n",
  "sourcePath": "/Users/congpham/Desktop/references/blockchain/dapp-shop-react/contracts/PlayerFactory.sol",
  "compiler": {
    "name": "solc",
    "version": "0.4.18+commit.9cf6e910.Emscripten.clang"
  },
  "schemaVersion": "1.0.1",
  "updatedAt": "2018-03-30T07:59:45.412Z"
}