{
  "contractName": "ServiceFactory",
  "abi": [
    {
      "constant": true,
      "inputs": [],
      "name": "name",
      "outputs": [
        {
          "name": "",
          "type": "string"
        }
      ],
      "payable": false,
      "stateMutability": "view",
      "type": "function"
    },
    {
      "constant": false,
      "inputs": [
        {
          "name": "_spender",
          "type": "address"
        },
        {
          "name": "_value",
          "type": "uint256"
        }
      ],
      "name": "approve",
      "outputs": [
        {
          "name": "success",
          "type": "bool"
        }
      ],
      "payable": false,
      "stateMutability": "nonpayable",
      "type": "function"
    },
    {
      "constant": true,
      "inputs": [],
      "name": "totalSupply",
      "outputs": [
        {
          "name": "",
          "type": "uint256"
        }
      ],
      "payable": false,
      "stateMutability": "view",
      "type": "function"
    },
    {
      "constant": false,
      "inputs": [
        {
          "name": "_from",
          "type": "address"
        },
        {
          "name": "_to",
          "type": "address"
        },
        {
          "name": "_value",
          "type": "uint256"
        }
      ],
      "name": "transferFrom",
      "outputs": [
        {
          "name": "success",
          "type": "bool"
        }
      ],
      "payable": false,
      "stateMutability": "nonpayable",
      "type": "function"
    },
    {
      "constant": true,
      "inputs": [],
      "name": "decimals",
      "outputs": [
        {
          "name": "",
          "type": "uint8"
        }
      ],
      "payable": false,
      "stateMutability": "view",
      "type": "function"
    },
    {
      "constant": true,
      "inputs": [
        {
          "name": "",
          "type": "uint256"
        }
      ],
      "name": "users",
      "outputs": [
        {
          "name": "userPhoneNo",
          "type": "string"
        },
        {
          "name": "userName",
          "type": "string"
        },
        {
          "name": "userAddress",
          "type": "string"
        },
        {
          "name": "isOwner",
          "type": "bool"
        }
      ],
      "payable": false,
      "stateMutability": "view",
      "type": "function"
    },
    {
      "constant": true,
      "inputs": [],
      "name": "isUser",
      "outputs": [
        {
          "name": "",
          "type": "bool"
        }
      ],
      "payable": false,
      "stateMutability": "view",
      "type": "function"
    },
    {
      "constant": true,
      "inputs": [
        {
          "name": "_owner",
          "type": "address"
        }
      ],
      "name": "balanceOf",
      "outputs": [
        {
          "name": "balance",
          "type": "uint256"
        }
      ],
      "payable": false,
      "stateMutability": "view",
      "type": "function"
    },
    {
      "constant": true,
      "inputs": [
        {
          "name": "",
          "type": "address"
        }
      ],
      "name": "addressToIsUser",
      "outputs": [
        {
          "name": "",
          "type": "bool"
        }
      ],
      "payable": false,
      "stateMutability": "view",
      "type": "function"
    },
    {
      "constant": false,
      "inputs": [],
      "name": "acceptOwnership",
      "outputs": [],
      "payable": false,
      "stateMutability": "nonpayable",
      "type": "function"
    },
    {
      "constant": true,
      "inputs": [],
      "name": "owner",
      "outputs": [
        {
          "name": "",
          "type": "address"
        }
      ],
      "payable": false,
      "stateMutability": "view",
      "type": "function"
    },
    {
      "constant": true,
      "inputs": [],
      "name": "getCurrentUserInfo",
      "outputs": [
        {
          "name": "userId",
          "type": "uint256"
        },
        {
          "name": "userPhoneNo",
          "type": "string"
        },
        {
          "name": "userName",
          "type": "string"
        },
        {
          "name": "userAddress",
          "type": "string"
        },
        {
          "name": "isOwner",
          "type": "bool"
        }
      ],
      "payable": false,
      "stateMutability": "view",
      "type": "function"
    },
    {
      "constant": true,
      "inputs": [],
      "name": "symbol",
      "outputs": [
        {
          "name": "",
          "type": "string"
        }
      ],
      "payable": false,
      "stateMutability": "view",
      "type": "function"
    },
    {
      "constant": false,
      "inputs": [
        {
          "name": "_to",
          "type": "address"
        },
        {
          "name": "_value",
          "type": "uint256"
        }
      ],
      "name": "transfer",
      "outputs": [
        {
          "name": "success",
          "type": "bool"
        }
      ],
      "payable": false,
      "stateMutability": "nonpayable",
      "type": "function"
    },
    {
      "constant": true,
      "inputs": [
        {
          "name": "",
          "type": "address"
        }
      ],
      "name": "addressToUserId",
      "outputs": [
        {
          "name": "",
          "type": "uint256"
        }
      ],
      "payable": false,
      "stateMutability": "view",
      "type": "function"
    },
    {
      "constant": true,
      "inputs": [
        {
          "name": "",
          "type": "uint256"
        }
      ],
      "name": "serviceIdToReservedUserAddress",
      "outputs": [
        {
          "name": "",
          "type": "address"
        }
      ],
      "payable": false,
      "stateMutability": "view",
      "type": "function"
    },
    {
      "constant": true,
      "inputs": [
        {
          "name": "",
          "type": "uint256"
        }
      ],
      "name": "services",
      "outputs": [
        {
          "name": "owner",
          "type": "address"
        },
        {
          "name": "name",
          "type": "string"
        },
        {
          "name": "description",
          "type": "string"
        },
        {
          "name": "price",
          "type": "uint256"
        },
        {
          "name": "canPayByDSVToken",
          "type": "bool"
        },
        {
          "name": "isReserved",
          "type": "bool"
        }
      ],
      "payable": false,
      "stateMutability": "view",
      "type": "function"
    },
    {
      "constant": true,
      "inputs": [],
      "name": "newOwner",
      "outputs": [
        {
          "name": "",
          "type": "address"
        }
      ],
      "payable": false,
      "stateMutability": "view",
      "type": "function"
    },
    {
      "constant": true,
      "inputs": [
        {
          "name": "_owner",
          "type": "address"
        },
        {
          "name": "_spender",
          "type": "address"
        }
      ],
      "name": "allowance",
      "outputs": [
        {
          "name": "remaining",
          "type": "uint256"
        }
      ],
      "payable": false,
      "stateMutability": "view",
      "type": "function"
    },
    {
      "constant": false,
      "inputs": [
        {
          "name": "_userPhoneNo",
          "type": "string"
        },
        {
          "name": "_userName",
          "type": "string"
        },
        {
          "name": "_userAddress",
          "type": "string"
        },
        {
          "name": "_isOwner",
          "type": "bool"
        }
      ],
      "name": "createUser",
      "outputs": [
        {
          "name": "userId",
          "type": "uint256"
        }
      ],
      "payable": false,
      "stateMutability": "nonpayable",
      "type": "function"
    },
    {
      "constant": false,
      "inputs": [
        {
          "name": "_newOwner",
          "type": "address"
        }
      ],
      "name": "transferOwnership",
      "outputs": [],
      "payable": false,
      "stateMutability": "nonpayable",
      "type": "function"
    },
    {
      "anonymous": false,
      "inputs": [
        {
          "indexed": true,
          "name": "owner",
          "type": "address"
        },
        {
          "indexed": false,
          "name": "name",
          "type": "string"
        },
        {
          "indexed": false,
          "name": "description",
          "type": "string"
        },
        {
          "indexed": false,
          "name": "price",
          "type": "uint256"
        },
        {
          "indexed": false,
          "name": "canPayByDSVToken",
          "type": "bool"
        },
        {
          "indexed": false,
          "name": "isReserved",
          "type": "bool"
        }
      ],
      "name": "NewServiceCreated",
      "type": "event"
    },
    {
      "anonymous": false,
      "inputs": [
        {
          "indexed": true,
          "name": "from",
          "type": "address"
        },
        {
          "indexed": false,
          "name": "serviceId",
          "type": "uint256"
        },
        {
          "indexed": false,
          "name": "paidInDSVToken",
          "type": "bool"
        },
        {
          "indexed": false,
          "name": "price",
          "type": "uint256"
        }
      ],
      "name": "ServiceReserved",
      "type": "event"
    },
    {
      "anonymous": false,
      "inputs": [
        {
          "indexed": true,
          "name": "to",
          "type": "address"
        },
        {
          "indexed": false,
          "name": "value",
          "type": "uint256"
        },
        {
          "indexed": false,
          "name": "success",
          "type": "bool"
        }
      ],
      "name": "TokenRewardSent",
      "type": "event"
    },
    {
      "anonymous": false,
      "inputs": [
        {
          "indexed": true,
          "name": "_from",
          "type": "address"
        },
        {
          "indexed": true,
          "name": "_to",
          "type": "address"
        }
      ],
      "name": "OwnershipTransferred",
      "type": "event"
    },
    {
      "anonymous": false,
      "inputs": [
        {
          "indexed": true,
          "name": "src",
          "type": "address"
        },
        {
          "indexed": true,
          "name": "guy",
          "type": "address"
        },
        {
          "indexed": false,
          "name": "wad",
          "type": "uint256"
        }
      ],
      "name": "Approval",
      "type": "event"
    },
    {
      "anonymous": false,
      "inputs": [
        {
          "indexed": true,
          "name": "src",
          "type": "address"
        },
        {
          "indexed": true,
          "name": "dst",
          "type": "address"
        },
        {
          "indexed": false,
          "name": "wad",
          "type": "uint256"
        }
      ],
      "name": "Transfer",
      "type": "event"
    },
    {
      "anonymous": false,
      "inputs": [
        {
          "indexed": true,
          "name": "from",
          "type": "address"
        },
        {
          "indexed": false,
          "name": "userId",
          "type": "uint256"
        },
        {
          "indexed": false,
          "name": "userPhoneNo",
          "type": "string"
        },
        {
          "indexed": false,
          "name": "userName",
          "type": "string"
        },
        {
          "indexed": false,
          "name": "userAddress",
          "type": "string"
        },
        {
          "indexed": false,
          "name": "isOwner",
          "type": "bool"
        }
      ],
      "name": "NewUserCreated",
      "type": "event"
    },
    {
      "constant": true,
      "inputs": [],
      "name": "getServicesLength",
      "outputs": [
        {
          "name": "",
          "type": "uint256"
        }
      ],
      "payable": false,
      "stateMutability": "view",
      "type": "function"
    },
    {
      "constant": true,
      "inputs": [
        {
          "name": "_index",
          "type": "uint256"
        }
      ],
      "name": "getServiceAtIndex",
      "outputs": [
        {
          "name": "owner",
          "type": "address"
        },
        {
          "name": "name",
          "type": "string"
        },
        {
          "name": "description",
          "type": "string"
        },
        {
          "name": "price",
          "type": "uint256"
        },
        {
          "name": "canPayByDSVToken",
          "type": "bool"
        },
        {
          "name": "isReserved",
          "type": "bool"
        }
      ],
      "payable": false,
      "stateMutability": "view",
      "type": "function"
    },
    {
      "constant": false,
      "inputs": [
        {
          "name": "_name",
          "type": "string"
        },
        {
          "name": "_description",
          "type": "string"
        },
        {
          "name": "_price",
          "type": "uint256"
        },
        {
          "name": "_canPayByDSVToken",
          "type": "bool"
        }
      ],
      "name": "createService",
      "outputs": [
        {
          "name": "serviceId",
          "type": "uint256"
        }
      ],
      "payable": false,
      "stateMutability": "nonpayable",
      "type": "function"
    },
    {
      "constant": false,
      "inputs": [
        {
          "name": "_serviceId",
          "type": "uint256"
        }
      ],
      "name": "reserveServiceByDSVToken",
      "outputs": [
        {
          "name": "",
          "type": "bool"
        }
      ],
      "payable": false,
      "stateMutability": "nonpayable",
      "type": "function"
    },
    {
      "constant": false,
      "inputs": [
        {
          "name": "_serviceId",
          "type": "uint256"
        }
      ],
      "name": "reserveServiceByETH",
      "outputs": [
        {
          "name": "",
          "type": "bool"
        }
      ],
      "payable": true,
      "stateMutability": "payable",
      "type": "function"
    }
  ],
  "bytecode": "0x608060405266038d7ea4c68000600b5533600360006101000a81548173ffffffffffffffffffffffffffffffffffffffff021916908373ffffffffffffffffffffffffffffffffffffffff16021790555030600360006101000a81548173ffffffffffffffffffffffffffffffffffffffff021916908373ffffffffffffffffffffffffffffffffffffffff1602179055506040805190810160405280600381526020017f445356000000000000000000000000000000000000000000000000000000000081525060059080519060200190620000de929190620001d8565b506040805190810160405280600981526020017f44535620546f6b656e0000000000000000000000000000000000000000000000815250600690805190602001906200012c929190620001d8565b506000600760006101000a81548160ff021916908360ff160217905550600760009054906101000a900460ff1660ff16600a0a620f42400260088190555060085460096000600360009054906101000a900473ffffffffffffffffffffffffffffffffffffffff1673ffffffffffffffffffffffffffffffffffffffff1673ffffffffffffffffffffffffffffffffffffffff1681526020019081526020016000208190555062000287565b828054600181600116156101000203166002900490600052602060002090601f016020900481019282601f106200021b57805160ff19168380011785556200024c565b828001600101855582156200024c579182015b828111156200024b5782518255916020019190600101906200022e565b5b5090506200025b91906200025f565b5090565b6200028491905b808211156200028057600081600090555060010162000266565b5090565b90565b61338d80620002976000396000f300608060405260043610610154576000357c0100000000000000000000000000000000000000000000000000000000900463ffffffff16806306fdde0314610159578063095ea7b3146101e957806318160ddd1461024e57806323b872dd14610279578063313ce567146102fe578063365b98b21461032f5780634c22c119146104b857806370a08231146104e7578063796797241461053e57806379ba5097146105995780638da5cb5b146105b05780638f94fe1e1461060757806395d89b41146107815780639948002014610811578063a9059cbb1461088e578063b5ffbbcc146108f3578063bc4155021461094a578063c22c4f43146109b7578063c573d8a214610b19578063ceeb6b6d14610b44578063d4ee1d9014610ca6578063dd62ed3e14610cfd578063e4f3ad9514610d74578063f2fde38b14610dff578063f66bf76b14610e42578063ff31202b14610e87575b600080fd5b34801561016557600080fd5b5061016e610ebf565b6040518080602001828103825283818151815260200191508051906020019080838360005b838110156101ae578082015181840152602081019050610193565b50505050905090810190601f1680156101db5780820380516001836020036101000a031916815260200191505b509250505060405180910390f35b3480156101f557600080fd5b50610234600480360381019080803573ffffffffffffffffffffffffffffffffffffffff16906020019092919080359060200190929190505050610f5d565b604051808215151515815260200191505060405180910390f35b34801561025a57600080fd5b5061026361104f565b6040518082815260200191505060405180910390f35b34801561028557600080fd5b506102e4600480360381019080803573ffffffffffffffffffffffffffffffffffffffff169060200190929190803573ffffffffffffffffffffffffffffffffffffffff1690602001909291908035906020019092919050505061109a565b604051808215151515815260200191505060405180910390f35b34801561030a57600080fd5b5061031361132f565b604051808260ff1660ff16815260200191505060405180910390f35b34801561033b57600080fd5b5061035a60048036038101908080359060200190929190505050611342565b6040518080602001806020018060200185151515158152602001848103845288818151815260200191508051906020019080838360005b838110156103ac578082015181840152602081019050610391565b50505050905090810190601f1680156103d95780820380516001836020036101000a031916815260200191505b50848103835287818151815260200191508051906020019080838360005b838110156104125780820151818401526020810190506103f7565b50505050905090810190601f16801561043f5780820380516001836020036101000a031916815260200191505b50848103825286818151815260200191508051906020019080838360005b8381101561047857808201518184015260208101905061045d565b50505050905090810190601f1680156104a55780820380516001836020036101000a031916815260200191505b5097505050505050505060405180910390f35b3480156104c457600080fd5b506104cd611556565b604051808215151515815260200191505060405180910390f35b3480156104f357600080fd5b50610528600480360381019080803573ffffffffffffffffffffffffffffffffffffffff1690602001909291905050506115aa565b6040518082815260200191505060405180910390f35b34801561054a57600080fd5b5061057f600480360381019080803573ffffffffffffffffffffffffffffffffffffffff1690602001909291905050506115f3565b604051808215151515815260200191505060405180910390f35b3480156105a557600080fd5b506105ae611613565b005b3480156105bc57600080fd5b506105c56117b4565b604051808273ffffffffffffffffffffffffffffffffffffffff1673ffffffffffffffffffffffffffffffffffffffff16815260200191505060405180910390f35b34801561061357600080fd5b5061061c6117da565b6040518086815260200180602001806020018060200185151515158152602001848103845288818151815260200191508051906020019080838360005b83811015610674578082015181840152602081019050610659565b50505050905090810190601f1680156106a15780820380516001836020036101000a031916815260200191505b50848103835287818151815260200191508051906020019080838360005b838110156106da5780820151818401526020810190506106bf565b50505050905090810190601f1680156107075780820380516001836020036101000a031916815260200191505b50848103825286818151815260200191508051906020019080838360005b83811015610740578082015181840152602081019050610725565b50505050905090810190601f16801561076d5780820380516001836020036101000a031916815260200191505b509850505050505050505060405180910390f35b34801561078d57600080fd5b50610796611a7d565b6040518080602001828103825283818151815260200191508051906020019080838360005b838110156107d65780820151818401526020810190506107bb565b50505050905090810190601f1680156108035780820380516001836020036101000a031916815260200191505b509250505060405180910390f35b34801561081d57600080fd5b5061087860048036038101908080359060200190820180359060200191909192939192939080359060200190820180359060200191909192939192939080359060200190929190803515159060200190929190505050611b1b565b6040518082815260200191505060405180910390f35b34801561089a57600080fd5b506108d9600480360381019080803573ffffffffffffffffffffffffffffffffffffffff1690602001909291908035906020019092919050505061206c565b604051808215151515815260200191505060405180910390f35b3480156108ff57600080fd5b50610934600480360381019080803573ffffffffffffffffffffffffffffffffffffffff1690602001909291905050506121f5565b6040518082815260200191505060405180910390f35b34801561095657600080fd5b506109756004803603810190808035906020019092919050505061220d565b604051808273ffffffffffffffffffffffffffffffffffffffff1673ffffffffffffffffffffffffffffffffffffffff16815260200191505060405180910390f35b3480156109c357600080fd5b506109e260048036038101908080359060200190929190505050612240565b604051808773ffffffffffffffffffffffffffffffffffffffff1673ffffffffffffffffffffffffffffffffffffffff16815260200180602001806020018681526020018515151515815260200184151515158152602001838103835288818151815260200191508051906020019080838360005b83811015610a72578082015181840152602081019050610a57565b50505050905090810190601f168015610a9f5780820380516001836020036101000a031916815260200191505b50838103825287818151815260200191508051906020019080838360005b83811015610ad8578082015181840152602081019050610abd565b50505050905090810190601f168015610b055780820380516001836020036101000a031916815260200191505b509850505050505050505060405180910390f35b348015610b2557600080fd5b50610b2e6123f5565b6040518082815260200191505060405180910390f35b348015610b5057600080fd5b50610b6f60048036038101908080359060200190929190505050612402565b604051808773ffffffffffffffffffffffffffffffffffffffff1673ffffffffffffffffffffffffffffffffffffffff16815260200180602001806020018681526020018515151515815260200184151515158152602001838103835288818151815260200191508051906020019080838360005b83811015610bff578082015181840152602081019050610be4565b50505050905090810190601f168015610c2c5780820380516001836020036101000a031916815260200191505b50838103825287818151815260200191508051906020019080838360005b83811015610c65578082015181840152602081019050610c4a565b50505050905090810190601f168015610c925780820380516001836020036101000a031916815260200191505b509850505050505050505060405180910390f35b348015610cb257600080fd5b50610cbb61264d565b604051808273ffffffffffffffffffffffffffffffffffffffff1673ffffffffffffffffffffffffffffffffffffffff16815260200191505060405180910390f35b348015610d0957600080fd5b50610d5e600480360381019080803573ffffffffffffffffffffffffffffffffffffffff169060200190929190803573ffffffffffffffffffffffffffffffffffffffff169060200190929190505050612673565b6040518082815260200191505060405180910390f35b348015610d8057600080fd5b50610de96004803603810190808035906020019082018035906020019190919293919293908035906020019082018035906020019190919293919293908035906020019082018035906020019190919293919293908035151590602001909291905050506126fa565b6040518082815260200191505060405180910390f35b348015610e0b57600080fd5b50610e40600480360381019080803573ffffffffffffffffffffffffffffffffffffffff1690602001909291905050506129d3565b005b348015610e4e57600080fd5b50610e6d60048036038101908080359060200190929190505050612a73565b604051808215151515815260200191505060405180910390f35b610ea560048036038101908080359060200190929190505050612e20565b604051808215151515815260200191505060405180910390f35b60068054600181600116156101000203166002900480601f016020809104026020016040519081016040528092919081815260200182805460018160011615610100020316600290048015610f555780601f10610f2a57610100808354040283529160200191610f55565b820191906000526020600020905b815481529060010190602001808311610f3857829003601f168201915b505050505081565b600081600a60003373ffffffffffffffffffffffffffffffffffffffff1673ffffffffffffffffffffffffffffffffffffffff16815260200190815260200160002060008573ffffffffffffffffffffffffffffffffffffffff1673ffffffffffffffffffffffffffffffffffffffff168152602001908152602001600020819055508273ffffffffffffffffffffffffffffffffffffffff163373ffffffffffffffffffffffffffffffffffffffff167f8c5be1e5ebec7d5bd14f71427d1e84f3dd0314c0f7b2291e5b200ac8c7c3b925846040518082815260200191505060405180910390a36001905092915050565b6000600960008073ffffffffffffffffffffffffffffffffffffffff1673ffffffffffffffffffffffffffffffffffffffff1681526020019081526020016000205460085403905090565b600080600a60008673ffffffffffffffffffffffffffffffffffffffff1673ffffffffffffffffffffffffffffffffffffffff16815260200190815260200160002060003373ffffffffffffffffffffffffffffffffffffffff1673ffffffffffffffffffffffffffffffffffffffff168152602001908152602001600020549050611165600960008673ffffffffffffffffffffffffffffffffffffffff1673ffffffffffffffffffffffffffffffffffffffff1681526020019081526020016000205484613209565b600960008673ffffffffffffffffffffffffffffffffffffffff1673ffffffffffffffffffffffffffffffffffffffff168152602001908152602001600020819055506111f1600960008773ffffffffffffffffffffffffffffffffffffffff1673ffffffffffffffffffffffffffffffffffffffff1681526020019081526020016000205484613227565b600960008773ffffffffffffffffffffffffffffffffffffffff1673ffffffffffffffffffffffffffffffffffffffff1681526020019081526020016000208190555061123e8184613227565b600a60008773ffffffffffffffffffffffffffffffffffffffff1673ffffffffffffffffffffffffffffffffffffffff16815260200190815260200160002060003373ffffffffffffffffffffffffffffffffffffffff1673ffffffffffffffffffffffffffffffffffffffff168152602001908152602001600020819055508373ffffffffffffffffffffffffffffffffffffffff168573ffffffffffffffffffffffffffffffffffffffff167fddf252ad1be2c89b69c2b068fc378daa952ba7f163c4a11628f55a4df523b3ef856040518082815260200191505060405180910390a360019150509392505050565b600760009054906101000a900460ff1681565b60008181548110151561135157fe5b9060005260206000209060040201600091509050806000018054600181600116156101000203166002900480601f0160208091040260200160405190810160405280929190818152602001828054600181600116156101000203166002900480156113fd5780601f106113d2576101008083540402835291602001916113fd565b820191906000526020600020905b8154815290600101906020018083116113e057829003601f168201915b505050505090806001018054600181600116156101000203166002900480601f01602080910402602001604051908101604052809291908181526020018280546001816001161561010002031660029004801561149b5780601f106114705761010080835404028352916020019161149b565b820191906000526020600020905b81548152906001019060200180831161147e57829003601f168201915b505050505090806002018054600181600116156101000203166002900480601f0160208091040260200160405190810160405280929190818152602001828054600181600116156101000203166002900480156115395780601f1061150e57610100808354040283529160200191611539565b820191906000526020600020905b81548152906001019060200180831161151c57829003601f168201915b5050505050908060030160009054906101000a900460ff16905084565b6000600160003373ffffffffffffffffffffffffffffffffffffffff1673ffffffffffffffffffffffffffffffffffffffff16815260200190815260200160002060009054906101000a900460ff16905090565b6000600960008373ffffffffffffffffffffffffffffffffffffffff1673ffffffffffffffffffffffffffffffffffffffff168152602001908152602001600020549050919050565b60016020528060005260406000206000915054906101000a900460ff1681565b600460009054906101000a900473ffffffffffffffffffffffffffffffffffffffff1673ffffffffffffffffffffffffffffffffffffffff163373ffffffffffffffffffffffffffffffffffffffff1614151561166f57600080fd5b600460009054906101000a900473ffffffffffffffffffffffffffffffffffffffff1673ffffffffffffffffffffffffffffffffffffffff16600360009054906101000a900473ffffffffffffffffffffffffffffffffffffffff1673ffffffffffffffffffffffffffffffffffffffff167f8be0079c531659141344cd1fd0a4f28419497f9722a3daafe3b4186f6b6457e060405160405180910390a3600460009054906101000a900473ffffffffffffffffffffffffffffffffffffffff16600360006101000a81548173ffffffffffffffffffffffffffffffffffffffff021916908373ffffffffffffffffffffffffffffffffffffffff1602179055506000600460006101000a81548173ffffffffffffffffffffffffffffffffffffffff021916908373ffffffffffffffffffffffffffffffffffffffff160217905550565b600360009054906101000a900473ffffffffffffffffffffffffffffffffffffffff1681565b6000606080606060006117eb613240565b600260003373ffffffffffffffffffffffffffffffffffffffff1673ffffffffffffffffffffffffffffffffffffffff16815260200190815260200160002054955060008681548110151561183c57fe5b906000526020600020906004020160806040519081016040529081600082018054600181600116156101000203166002900480601f0160208091040260200160405190810160405280929190818152602001828054600181600116156101000203166002900480156118ef5780601f106118c4576101008083540402835291602001916118ef565b820191906000526020600020905b8154815290600101906020018083116118d257829003601f168201915b50505050508152602001600182018054600181600116156101000203166002900480601f0160208091040260200160405190810160405280929190818152602001828054600181600116156101000203166002900480156119915780601f1061196657610100808354040283529160200191611991565b820191906000526020600020905b81548152906001019060200180831161197457829003601f168201915b50505050508152602001600282018054600181600116156101000203166002900480601f016020809104026020016040519081016040528092919081815260200182805460018160011615610100020316600290048015611a335780601f10611a0857610100808354040283529160200191611a33565b820191906000526020600020905b815481529060010190602001808311611a1657829003601f168201915b505050505081526020016003820160009054906101000a900460ff161515151581525050905080600001519450806020015193508060400151925080606001519150509091929394565b60058054600181600116156101000203166002900480601f016020809104026020016040519081016040528092919081815260200182805460018160011615610100020316600290048015611b135780601f10611ae857610100808354040283529160200191611b13565b820191906000526020600020905b815481529060010190602001808311611af657829003601f168201915b505050505081565b6000611b2561326b565b6000611b2f613240565b600160003373ffffffffffffffffffffffffffffffffffffffff1673ffffffffffffffffffffffffffffffffffffffff16815260200190815260200160002060009054906101000a900460ff161515611b8757600080fd5b600260003373ffffffffffffffffffffffffffffffffffffffff1673ffffffffffffffffffffffffffffffffffffffff168152602001908152602001600020549150600082815481101515611bd857fe5b906000526020600020906004020160806040519081016040529081600082018054600181600116156101000203166002900480601f016020809104026020016040519081016040528092919081815260200182805460018160011615610100020316600290048015611c8b5780601f10611c6057610100808354040283529160200191611c8b565b820191906000526020600020905b815481529060010190602001808311611c6e57829003601f168201915b50505050508152602001600182018054600181600116156101000203166002900480601f016020809104026020016040519081016040528092919081815260200182805460018160011615610100020316600290048015611d2d5780601f10611d0257610100808354040283529160200191611d2d565b820191906000526020600020905b815481529060010190602001808311611d1057829003601f168201915b50505050508152602001600282018054600181600116156101000203166002900480601f016020809104026020016040519081016040528092919081815260200182805460018160011615610100020316600290048015611dcf5780601f10611da457610100808354040283529160200191611dcf565b820191906000526020600020905b815481529060010190602001808311611db257829003601f168201915b505050505081526020016003820160009054906101000a900460ff161515151581525050905080606001511515611e0557600080fd5b60c0604051908101604052803373ffffffffffffffffffffffffffffffffffffffff1681526020018b8b8080601f016020809104026020016040519081016040528093929190818152602001838380828437820191505050505050815260200189898080601f016020809104026020016040519081016040528093929190818152602001838380828437820191505050505050815260200187815260200186151581526020016000151581525092506001600c849080600181540180825580915050906001820390600052602060002090600502016000909192909190915060008201518160000160006101000a81548173ffffffffffffffffffffffffffffffffffffffff021916908373ffffffffffffffffffffffffffffffffffffffff1602179055506020820151816001019080519060200190611f479291906132bc565b506040820151816002019080519060200190611f649291906132bc565b506060820151816003015560808201518160040160006101000a81548160ff02191690831515021790555060a08201518160040160016101000a81548160ff02191690831515021790555050500393503373ffffffffffffffffffffffffffffffffffffffff167ff67ac7cc11823314b53d316e651e202bc5c50e9f58e66d37ef3e25d4cb8684098b8b8b8b8b8b6000604051808060200180602001868152602001851515151581526020018415151515815260200183810383528a8a82818152602001925080828437820191505083810382528888828181526020019250808284378201915050995050505050505050505060405180910390a25050509695505050505050565b60006120b7600960003373ffffffffffffffffffffffffffffffffffffffff1673ffffffffffffffffffffffffffffffffffffffff1681526020019081526020016000205483613227565b600960003373ffffffffffffffffffffffffffffffffffffffff1673ffffffffffffffffffffffffffffffffffffffff16815260200190815260200160002081905550612143600960008573ffffffffffffffffffffffffffffffffffffffff1673ffffffffffffffffffffffffffffffffffffffff1681526020019081526020016000205483613209565b600960008573ffffffffffffffffffffffffffffffffffffffff1673ffffffffffffffffffffffffffffffffffffffff168152602001908152602001600020819055508273ffffffffffffffffffffffffffffffffffffffff163373ffffffffffffffffffffffffffffffffffffffff167fddf252ad1be2c89b69c2b068fc378daa952ba7f163c4a11628f55a4df523b3ef846040518082815260200191505060405180910390a36001905092915050565b60026020528060005260406000206000915090505481565b600d6020528060005260406000206000915054906101000a900473ffffffffffffffffffffffffffffffffffffffff1681565b600c8181548110151561224f57fe5b90600052602060002090600502016000915090508060000160009054906101000a900473ffffffffffffffffffffffffffffffffffffffff1690806001018054600181600116156101000203166002900480601f0160208091040260200160405190810160405280929190818152602001828054600181600116156101000203166002900480156123215780601f106122f657610100808354040283529160200191612321565b820191906000526020600020905b81548152906001019060200180831161230457829003601f168201915b505050505090806002018054600181600116156101000203166002900480601f0160208091040260200160405190810160405280929190818152602001828054600181600116156101000203166002900480156123bf5780601f10612394576101008083540402835291602001916123bf565b820191906000526020600020905b8154815290600101906020018083116123a257829003601f168201915b5050505050908060030154908060040160009054906101000a900460ff16908060040160019054906101000a900460ff16905086565b6000600c80549050905090565b6000606080600080600061241461326b565b600c8881548110151561242357fe5b906000526020600020906005020160c060405190810160405290816000820160009054906101000a900473ffffffffffffffffffffffffffffffffffffffff1673ffffffffffffffffffffffffffffffffffffffff1673ffffffffffffffffffffffffffffffffffffffff168152602001600182018054600181600116156101000203166002900480601f01602080910402602001604051908101604052809291908181526020018280546001816001161561010002031660029004801561252c5780601f106125015761010080835404028352916020019161252c565b820191906000526020600020905b81548152906001019060200180831161250f57829003601f168201915b50505050508152602001600282018054600181600116156101000203166002900480601f0160208091040260200160405190810160405280929190818152602001828054600181600116156101000203166002900480156125ce5780601f106125a3576101008083540402835291602001916125ce565b820191906000526020600020905b8154815290600101906020018083116125b157829003601f168201915b50505050508152602001600382015481526020016004820160009054906101000a900460ff161515151581526020016004820160019054906101000a900460ff161515151581525050905080600001519650806020015195508060400151945080606001519350806080015192508060a0015191505091939550919395565b600460009054906101000a900473ffffffffffffffffffffffffffffffffffffffff1681565b6000600a60008473ffffffffffffffffffffffffffffffffffffffff1673ffffffffffffffffffffffffffffffffffffffff16815260200190815260200160002060008373ffffffffffffffffffffffffffffffffffffffff1673ffffffffffffffffffffffffffffffffffffffff16815260200190815260200160002054905092915050565b6000612704613240565b6080604051908101604052808a8a8080601f016020809104026020016040519081016040528093929190818152602001838380828437820191505050505050815260200188888080601f016020809104026020016040519081016040528093929190818152602001838380828437820191505050505050815260200186868080601f01602080910402602001604051908101604052809392919081815260200183838082843782019150505050505081526020018415158152509050600160008290806001815401808255809150509060018203906000526020600020906004020160009091929091909150600082015181600001908051906020019061280c9291906132bc565b5060208201518160010190805190602001906128299291906132bc565b5060408201518160020190805190602001906128469291906132bc565b5060608201518160030160006101000a81548160ff021916908315150217905550505003915081600260003373ffffffffffffffffffffffffffffffffffffffff1673ffffffffffffffffffffffffffffffffffffffff1681526020019081526020016000208190555060018060003373ffffffffffffffffffffffffffffffffffffffff1673ffffffffffffffffffffffffffffffffffffffff16815260200190815260200160002060006101000a81548160ff0219169083151502179055503373ffffffffffffffffffffffffffffffffffffffff167f9573d00c1bf1114c90739ca1c958b41174e3956372e3db403e82ccbbefd25002838b8b8b8b8b8b8b604051808981526020018060200180602001806020018515151515815260200184810384528b8b82818152602001925080828437820191505084810383528989828181526020019250808284378201915050848103825287878281815260200192508082843782019150509b50505050505050505050505060405180910390a250979650505050505050565b600360009054906101000a900473ffffffffffffffffffffffffffffffffffffffff1673ffffffffffffffffffffffffffffffffffffffff163373ffffffffffffffffffffffffffffffffffffffff16141515612a2f57600080fd5b80600460006101000a81548173ffffffffffffffffffffffffffffffffffffffff021916908373ffffffffffffffffffffffffffffffffffffffff16021790555050565b6000806000806000600160003373ffffffffffffffffffffffffffffffffffffffff1673ffffffffffffffffffffffffffffffffffffffff16815260200190815260200160002060009054906101000a900460ff161515612ad357600080fd5b600c86815481101515612ae257fe5b90600052602060002090600502019350600115158460040160009054906101000a900460ff161515141515612b1657600080fd5b600015158460040160019054906101000a900460ff161515141515612b3a57600080fd5b83600301549250612b4a336115aa565b9150829050808210151515612b5e57600080fd5b612ba7600960003373ffffffffffffffffffffffffffffffffffffffff1673ffffffffffffffffffffffffffffffffffffffff1681526020019081526020016000205482613227565b600960003373ffffffffffffffffffffffffffffffffffffffff1673ffffffffffffffffffffffffffffffffffffffff16815260200190815260200160002081905550612c57600960008660000160009054906101000a900473ffffffffffffffffffffffffffffffffffffffff1673ffffffffffffffffffffffffffffffffffffffff1673ffffffffffffffffffffffffffffffffffffffff1681526020019081526020016000205482613209565b600960008660000160009054906101000a900473ffffffffffffffffffffffffffffffffffffffff1673ffffffffffffffffffffffffffffffffffffffff1673ffffffffffffffffffffffffffffffffffffffff1681526020019081526020016000208190555060018460040160016101000a81548160ff0219169083151502179055503373ffffffffffffffffffffffffffffffffffffffff167f822a457db49957f650f57e784bd5df871ea3c23ea07119e39663acc1a62e960f876001846040518084815260200183151515158152602001828152602001935050505060405180910390a233600d600088815260200190815260200160002060006101000a81548173ffffffffffffffffffffffffffffffffffffffff021916908373ffffffffffffffffffffffffffffffffffffffff160217905550600e60003373ffffffffffffffffffffffffffffffffffffffff1673ffffffffffffffffffffffffffffffffffffffff16815260200190815260200160002060206040519081016040528088815250908060018154018082558091505090600182039060005260206000200160009091929091909150600082015181600001555050506001945050505050919050565b6000806000806000806000600160003373ffffffffffffffffffffffffffffffffffffffff1673ffffffffffffffffffffffffffffffffffffffff16815260200190815260200160002060009054906101000a900460ff161515612e8357600080fd5b600c88815481101515612e9257fe5b906000526020600020906005020195508560030154945066038d7ea4c6800034811515612ebb57fe5b049350600015158660040160019054906101000a900460ff161515141515612ee257600080fd5b848410151515612ef157600080fd5b8560000160009054906101000a900473ffffffffffffffffffffffffffffffffffffffff1692508273ffffffffffffffffffffffffffffffffffffffff166108fc66038d7ea4c6800087029081150290604051600060405180830381858888f19350505050158015612f67573d6000803e3d6000fd5b5060018660040160016101000a81548160ff0219169083151502179055503373ffffffffffffffffffffffffffffffffffffffff167f822a457db49957f650f57e784bd5df871ea3c23ea07119e39663acc1a62e960f896000886040518084815260200183151515158152602001828152602001935050505060405180910390a233600d60008a815260200190815260200160002060006101000a81548173ffffffffffffffffffffffffffffffffffffffff021916908373ffffffffffffffffffffffffffffffffffffffff160217905550600e60003373ffffffffffffffffffffffffffffffffffffffff1673ffffffffffffffffffffffffffffffffffffffff1681526020019081526020016000206020604051908101604052808a815250908060018154018082558091505090600182039060005260206000200160009091929091909150600082015181600001555050508391503073ffffffffffffffffffffffffffffffffffffffff1663a9059cbb33846040518363ffffffff167c0100000000000000000000000000000000000000000000000000000000028152600401808373ffffffffffffffffffffffffffffffffffffffff1673ffffffffffffffffffffffffffffffffffffffff16815260200182815260200192505050602060405180830381600087803b15801561316357600080fd5b505af1158015613177573d6000803e3d6000fd5b505050506040513d602081101561318d57600080fd5b810190808051906020019092919050505090503373ffffffffffffffffffffffffffffffffffffffff167fe32efaa521dea2ccc3f6a0cfd64a3a9e404816e35b58a3525fa66b416f96ab8c838360405180838152602001821515151581526020019250505060405180910390a260019650505050505050919050565b600080828401905083811015151561321d57fe5b8091505092915050565b600082821115151561323557fe5b818303905092915050565b6080604051908101604052806060815260200160608152602001606081526020016000151581525090565b60c060405190810160405280600073ffffffffffffffffffffffffffffffffffffffff1681526020016060815260200160608152602001600081526020016000151581526020016000151581525090565b828054600181600116156101000203166002900490600052602060002090601f016020900481019282601f106132fd57805160ff191683800117855561332b565b8280016001018555821561332b579182015b8281111561332a57825182559160200191906001019061330f565b5b509050613338919061333c565b5090565b61335e91905b8082111561335a576000816000905550600101613342565b5090565b905600a165627a7a72305820ac08a5822de48e0f6fdae1dff7ee1553aae75220577bc308602eb652606f74ac0029",
  "source": "pragma solidity ^0.4.21;\n\nimport \"./UserFactory.sol\";\nimport \"./DSVToken.sol\";\n\n// interface token {\n//     function transfer(address _to, uint _value) external returns (bool success);\n//     function transferFrom(address _from, address _to, uint _value) external returns (bool success);\n//     function balanceOf(address _owner) external constant returns (uint balance);\n//     function allowance(address _owner, address _spender) external constant returns (uint remaining);\n// }\n\ncontract ServiceFactory is UserFactory, DSVToken {\n\n    // Constants\n    // 1 paid ETH = 1000 DSVToken, because price of service paid in finney\n    uint rewardTokenRatio = 1 finney;\n\n    // DSVTokenReward\n    // token public DSVTokenReward;\n\n    // function ServiceFactory(address _DSVTokenAddress) public {\n    //     DSVTokenReward = token(_DSVTokenAddress);\n    // }\n\n    struct Service {\n        address owner;\n        string name;\n        string description;\n        uint price;             // In finney\n        bool canPayByDSVToken;  // Check whether owner of service want to be paid in DSVToken or not\n        bool isReserved;\n    }\n\n    // This struct used for address refer to its services later, without\n    // duplicating struct Service above\n    struct ServiceId {\n        uint serviceId;\n    }\n\n    // Index owner'address for filter on web3 later\n    event NewServiceCreated(\n        address indexed owner,\n        string name,\n        string description,\n        uint price,\n        bool canPayByDSVToken,\n        bool isReserved\n    );\n\n    event ServiceReserved(\n        address indexed from,\n        uint serviceId,\n        bool paidInDSVToken,\n        uint price\n    );\n\n    event TokenRewardSent(\n        address indexed to,\n        uint value,\n        bool success\n    );\n\n    Service[] public services;\n\n    mapping (uint => address) public serviceIdToReservedUserAddress;\n    mapping (address => ServiceId[]) addressToServiceIds;\n\n    // ============= Modifiers ================\n\n    // ============= Private / Internal functions ================\n\n    // ============= Public / External functions ================\n\n    // function test() external {\n    //     uint allowedAmount = DSVTokenReward.allowance(msg.sender, address(this));\n    //     emit Test(this, allowedAmount);\n    // }\n\n    function getServicesLength() external view returns (uint) {\n        return services.length;\n    }\n\n    function getServiceAtIndex(uint _index) external view returns (\n        address owner,\n        string name,\n        string description,\n        uint price,\n        bool canPayByDSVToken,\n        bool isReserved\n    ) {\n        Service memory service = services[_index];\n        owner = service.owner;\n        name = service.name;\n        description = service.description;\n        price = service.price;\n        canPayByDSVToken = service.canPayByDSVToken;\n        isReserved = service.isReserved;\n    }\n\n    function createService(\n        string _name,\n        string _description,\n        uint _price,\n        bool _canPayByDSVToken\n    ) onlyOwnerUser external returns (uint serviceId) {\n\n        Service memory newService = Service({\n            owner: msg.sender,\n            name: _name,\n            description: _description,\n            price: _price,\n            canPayByDSVToken: _canPayByDSVToken,\n            isReserved: false\n        });\n\n        serviceId = services.push(newService) - 1;\n\n        emit NewServiceCreated(\n            msg.sender,\n            _name,\n            _description,\n            _price,\n            _canPayByDSVToken,\n            false\n        );\n    }\n\n    // User firstly have to call approve amount of token to allow contract\n    // spend this amount to pay for service\n    // This should be achieved in front-end\n    function reserveServiceByDSVToken(uint _serviceId) onlyUser external returns (bool) {\n        Service storage service = services[_serviceId];\n\n        require(service.canPayByDSVToken == true);\n        require(service.isReserved == false);\n\n        uint servicePrice = service.price;\n        uint currentUserBalance = balanceOf(msg.sender);\n\n        // Amount of allowed token must be gte than price in DSVToken\n        // Because price of service in finney so, servicePriceInDSVToken = servicePrice\n        uint servicePriceInDSVToken = servicePrice;\n        require(currentUserBalance >= servicePriceInDSVToken);\n\n        // Transfer DSVToken from user to service owner\n        balances[msg.sender] = sub(balances[msg.sender], servicePriceInDSVToken);\n        balances[service.owner] = add(balances[service.owner], servicePriceInDSVToken);\n\n        // Update service's status\n        service.isReserved = true;\n        emit ServiceReserved(msg.sender, _serviceId, true, servicePriceInDSVToken);\n\n        // Save to further reference\n        serviceIdToReservedUserAddress[_serviceId] = msg.sender;\n        addressToServiceIds[msg.sender].push(ServiceId(_serviceId));\n\n        return true;\n    }\n\n    function reserveServiceByETH(uint _serviceId) onlyUser external payable returns (bool) {\n        Service storage service = services[_serviceId];\n        uint servicePrice = service.price;\n        uint valueTransferedInFinney = msg.value / 1000000000000000;\n\n        require(service.isReserved == false);\n        require(valueTransferedInFinney >= servicePrice);\n\n        // Transfer ETH value to owner of service\n        // `transfer` here is native-transfer function of contract address\n        address owner = service.owner;\n        owner.transfer(servicePrice * 1 finney);\n\n        // Update service's status\n        service.isReserved = true;\n        emit ServiceReserved(msg.sender, _serviceId, false, servicePrice);\n\n        // Save to further reference\n        serviceIdToReservedUserAddress[_serviceId] = msg.sender;\n        addressToServiceIds[msg.sender].push(ServiceId(_serviceId));\n\n        // Reward user that reserve service\n        uint amount = valueTransferedInFinney;\n\n        // Reward user an amount of DSVToken when paied in ETH\n        // It requires current contract owner has enough DSVToken to reward users\n        bool success = this.transfer(msg.sender, amount);\n        emit TokenRewardSent(msg.sender, amount, success);\n\n        return true;\n    }\n}\n",
  "sourcePath": "/Users/congpham/Desktop/references/blockchain/dapp-reserve-react/contracts/ServiceFactory.sol",
  "compiler": {
    "name": "solc",
    "version": "0.4.23+commit.124ca40d.Emscripten.clang"
  },
  "schemaVersion": "2.0.0",
  "updatedAt": "2018-05-09T04:01:38.906Z"
}