{
  "contractName": "UserFactory",
  "abi": [
    {
      "constant": true,
      "inputs": [
        {
          "name": "",
          "type": "uint256"
        }
      ],
      "name": "users",
      "outputs": [
        {
          "name": "userPhoneNo",
          "type": "string"
        },
        {
          "name": "userName",
          "type": "string"
        },
        {
          "name": "userAddress",
          "type": "string"
        },
        {
          "name": "isOwner",
          "type": "bool"
        }
      ],
      "payable": false,
      "stateMutability": "view",
      "type": "function"
    },
    {
      "constant": true,
      "inputs": [
        {
          "name": "",
          "type": "address"
        }
      ],
      "name": "addressToIsUser",
      "outputs": [
        {
          "name": "",
          "type": "bool"
        }
      ],
      "payable": false,
      "stateMutability": "view",
      "type": "function"
    },
    {
      "constant": true,
      "inputs": [
        {
          "name": "",
          "type": "address"
        }
      ],
      "name": "addressToUserId",
      "outputs": [
        {
          "name": "",
          "type": "uint256"
        }
      ],
      "payable": false,
      "stateMutability": "view",
      "type": "function"
    },
    {
      "anonymous": false,
      "inputs": [
        {
          "indexed": true,
          "name": "from",
          "type": "address"
        },
        {
          "indexed": false,
          "name": "userId",
          "type": "uint256"
        },
        {
          "indexed": false,
          "name": "userPhoneNo",
          "type": "string"
        },
        {
          "indexed": false,
          "name": "userName",
          "type": "string"
        },
        {
          "indexed": false,
          "name": "userAddress",
          "type": "string"
        },
        {
          "indexed": false,
          "name": "isOwner",
          "type": "bool"
        }
      ],
      "name": "NewUserCreated",
      "type": "event"
    },
    {
      "constant": true,
      "inputs": [],
      "name": "isUser",
      "outputs": [
        {
          "name": "",
          "type": "bool"
        }
      ],
      "payable": false,
      "stateMutability": "view",
      "type": "function"
    },
    {
      "constant": true,
      "inputs": [],
      "name": "getCurrentUserInfo",
      "outputs": [
        {
          "name": "userId",
          "type": "uint256"
        },
        {
          "name": "userPhoneNo",
          "type": "string"
        },
        {
          "name": "userName",
          "type": "string"
        },
        {
          "name": "userAddress",
          "type": "string"
        },
        {
          "name": "isOwner",
          "type": "bool"
        }
      ],
      "payable": false,
      "stateMutability": "view",
      "type": "function"
    },
    {
      "constant": false,
      "inputs": [
        {
          "name": "_userPhoneNo",
          "type": "string"
        },
        {
          "name": "_userName",
          "type": "string"
        },
        {
          "name": "_userAddress",
          "type": "string"
        },
        {
          "name": "_isOwner",
          "type": "bool"
        }
      ],
      "name": "createUser",
      "outputs": [
        {
          "name": "userId",
          "type": "uint256"
        }
      ],
      "payable": false,
      "stateMutability": "nonpayable",
      "type": "function"
    }
  ],
  "bytecode": "0x608060405234801561001057600080fd5b50610e04806100206000396000f300608060405260043610610078576000357c0100000000000000000000000000000000000000000000000000000000900463ffffffff168063365b98b21461007d5780634c22c1191461020657806379679724146102355780638f94fe1e14610290578063b5ffbbcc1461040a578063e4f3ad9514610461575b600080fd5b34801561008957600080fd5b506100a8600480360381019080803590602001909291905050506104ec565b6040518080602001806020018060200185151515158152602001848103845288818151815260200191508051906020019080838360005b838110156100fa5780820151818401526020810190506100df565b50505050905090810190601f1680156101275780820380516001836020036101000a031916815260200191505b50848103835287818151815260200191508051906020019080838360005b83811015610160578082015181840152602081019050610145565b50505050905090810190601f16801561018d5780820380516001836020036101000a031916815260200191505b50848103825286818151815260200191508051906020019080838360005b838110156101c65780820151818401526020810190506101ab565b50505050905090810190601f1680156101f35780820380516001836020036101000a031916815260200191505b5097505050505050505060405180910390f35b34801561021257600080fd5b5061021b610700565b604051808215151515815260200191505060405180910390f35b34801561024157600080fd5b50610276600480360381019080803573ffffffffffffffffffffffffffffffffffffffff169060200190929190505050610754565b604051808215151515815260200191505060405180910390f35b34801561029c57600080fd5b506102a5610774565b6040518086815260200180602001806020018060200185151515158152602001848103845288818151815260200191508051906020019080838360005b838110156102fd5780820151818401526020810190506102e2565b50505050905090810190601f16801561032a5780820380516001836020036101000a031916815260200191505b50848103835287818151815260200191508051906020019080838360005b83811015610363578082015181840152602081019050610348565b50505050905090810190601f1680156103905780820380516001836020036101000a031916815260200191505b50848103825286818151815260200191508051906020019080838360005b838110156103c95780820151818401526020810190506103ae565b50505050905090810190601f1680156103f65780820380516001836020036101000a031916815260200191505b509850505050505050505060405180910390f35b34801561041657600080fd5b5061044b600480360381019080803573ffffffffffffffffffffffffffffffffffffffff169060200190929190505050610a17565b6040518082815260200191505060405180910390f35b34801561046d57600080fd5b506104d6600480360381019080803590602001908201803590602001919091929391929390803590602001908201803590602001919091929391929390803590602001908201803590602001919091929391929390803515159060200190929190505050610a2f565b6040518082815260200191505060405180910390f35b6000818154811015156104fb57fe5b9060005260206000209060040201600091509050806000018054600181600116156101000203166002900480601f0160208091040260200160405190810160405280929190818152602001828054600181600116156101000203166002900480156105a75780601f1061057c576101008083540402835291602001916105a7565b820191906000526020600020905b81548152906001019060200180831161058a57829003601f168201915b505050505090806001018054600181600116156101000203166002900480601f0160208091040260200160405190810160405280929190818152602001828054600181600116156101000203166002900480156106455780601f1061061a57610100808354040283529160200191610645565b820191906000526020600020905b81548152906001019060200180831161062857829003601f168201915b505050505090806002018054600181600116156101000203166002900480601f0160208091040260200160405190810160405280929190818152602001828054600181600116156101000203166002900480156106e35780601f106106b8576101008083540402835291602001916106e3565b820191906000526020600020905b8154815290600101906020018083116106c657829003601f168201915b5050505050908060030160009054906101000a900460ff16905084565b6000600160003373ffffffffffffffffffffffffffffffffffffffff1673ffffffffffffffffffffffffffffffffffffffff16815260200190815260200160002060009054906101000a900460ff16905090565b60016020528060005260406000206000915054906101000a900460ff1681565b600060608060606000610785610d08565b600260003373ffffffffffffffffffffffffffffffffffffffff1673ffffffffffffffffffffffffffffffffffffffff1681526020019081526020016000205495506000868154811015156107d657fe5b906000526020600020906004020160806040519081016040529081600082018054600181600116156101000203166002900480601f0160208091040260200160405190810160405280929190818152602001828054600181600116156101000203166002900480156108895780601f1061085e57610100808354040283529160200191610889565b820191906000526020600020905b81548152906001019060200180831161086c57829003601f168201915b50505050508152602001600182018054600181600116156101000203166002900480601f01602080910402602001604051908101604052809291908181526020018280546001816001161561010002031660029004801561092b5780601f106109005761010080835404028352916020019161092b565b820191906000526020600020905b81548152906001019060200180831161090e57829003601f168201915b50505050508152602001600282018054600181600116156101000203166002900480601f0160208091040260200160405190810160405280929190818152602001828054600181600116156101000203166002900480156109cd5780601f106109a2576101008083540402835291602001916109cd565b820191906000526020600020905b8154815290600101906020018083116109b057829003601f168201915b505050505081526020016003820160009054906101000a900460ff161515151581525050905080600001519450806020015193508060400151925080606001519150509091929394565b60026020528060005260406000206000915090505481565b6000610a39610d08565b6080604051908101604052808a8a8080601f016020809104026020016040519081016040528093929190818152602001838380828437820191505050505050815260200188888080601f016020809104026020016040519081016040528093929190818152602001838380828437820191505050505050815260200186868080601f016020809104026020016040519081016040528093929190818152602001838380828437820191505050505050815260200184151581525090506001600082908060018154018082558091505090600182039060005260206000209060040201600090919290919091506000820151816000019080519060200190610b41929190610d33565b506020820151816001019080519060200190610b5e929190610d33565b506040820151816002019080519060200190610b7b929190610d33565b5060608201518160030160006101000a81548160ff021916908315150217905550505003915081600260003373ffffffffffffffffffffffffffffffffffffffff1673ffffffffffffffffffffffffffffffffffffffff1681526020019081526020016000208190555060018060003373ffffffffffffffffffffffffffffffffffffffff1673ffffffffffffffffffffffffffffffffffffffff16815260200190815260200160002060006101000a81548160ff0219169083151502179055503373ffffffffffffffffffffffffffffffffffffffff167f9573d00c1bf1114c90739ca1c958b41174e3956372e3db403e82ccbbefd25002838b8b8b8b8b8b8b604051808981526020018060200180602001806020018515151515815260200184810384528b8b82818152602001925080828437820191505084810383528989828181526020019250808284378201915050848103825287878281815260200192508082843782019150509b50505050505050505050505060405180910390a250979650505050505050565b6080604051908101604052806060815260200160608152602001606081526020016000151581525090565b828054600181600116156101000203166002900490600052602060002090601f016020900481019282601f10610d7457805160ff1916838001178555610da2565b82800160010185558215610da2579182015b82811115610da1578251825591602001919060010190610d86565b5b509050610daf9190610db3565b5090565b610dd591905b80821115610dd1576000816000905550600101610db9565b5090565b905600a165627a7a72305820d002aed2729ed10313ca7a2822ee6eced91e1ad1c52cb241439b850de416806a0029",
  "source": "pragma solidity ^0.4.21;\n\ncontract UserFactory {\n\n    struct User {\n        string userPhoneNo;\n        string userName;\n        string userAddress;\n        bool isOwner; // to check this user is guest or owner\n    }\n\n    // Index owner'address for filter on web3 later\n    event NewUserCreated(\n        address indexed from,\n        uint userId,\n        string userPhoneNo,\n        string userName,\n        string userAddress,\n        bool isOwner\n    );\n\n    User[] public users;\n\n    mapping (address => bool) public addressToIsUser;\n    mapping (address => uint) public addressToUserId;\n\n    // ============= Modifiers ================\n    modifier onlyUser {\n        require(addressToIsUser[msg.sender]);\n        _;\n    }\n\n    modifier onlyOwnerUser {\n        require(addressToIsUser[msg.sender]);\n\n        uint userId = addressToUserId[msg.sender];\n        User memory currentUser = users[userId];\n        require(currentUser.isOwner);\n\n        _;\n    }\n\n    // ============= Private / Internal functions ================\n\n    // ============= Public / External functions ================\n\n    function isUser() public view returns (bool) {\n        return addressToIsUser[msg.sender];\n    }\n\n    function getCurrentUserInfo() external view returns (\n        uint userId,\n        string userPhoneNo,\n        string userName,\n        string userAddress,\n        bool isOwner\n    ) {\n        userId = addressToUserId[msg.sender];\n        User memory currentUser = users[userId];\n\n        userPhoneNo = currentUser.userPhoneNo;\n        userName = currentUser.userName;\n        userAddress = currentUser.userAddress;\n        isOwner = currentUser.isOwner;\n    }\n\n    function createUser(\n        string _userPhoneNo,\n        string _userName,\n        string _userAddress,\n        bool _isOwner\n    ) external returns (uint userId) {\n        User memory newUser = User({\n            userPhoneNo: _userPhoneNo,\n            userName: _userName,\n            userAddress: _userAddress,\n            isOwner: _isOwner\n        });\n\n        userId = users.push(newUser) - 1;\n        addressToUserId[msg.sender] = userId;\n        addressToIsUser[msg.sender] = true;\n\n        emit NewUserCreated(\n            msg.sender,\n            userId,\n            _userPhoneNo,\n            _userName,\n            _userAddress,\n            _isOwner\n        );\n    }\n\n}\n",
  "sourcePath": "/Users/congpham/Desktop/references/blockchain/dapp-reserve-react/contracts/UserFactory.sol",
  "compiler": {
    "name": "solc",
    "version": "0.4.23+commit.124ca40d.Emscripten.clang"
  },
  "schemaVersion": "2.0.0",
  "updatedAt": "2018-05-09T04:01:38.320Z"
}